{"contracts/examples/ExampleComputeLiquidityValue.sol":{"ExampleComputeLiquidityValue":{"abi":[{"inputs":[{"internalType":"address","name":"factory_","type":"address"}],"stateMutability":"nonpayable","type":"constructor"},{"inputs":[],"name":"factory","outputs":[{"internalType":"address","name":"","type":"address"}],"stateMutability":"view","type":"function"},{"inputs":[{"internalType":"address","name":"tokenA","type":"address"},{"internalType":"address","name":"tokenB","type":"address"},{"internalType":"uint256","name":"truePriceTokenA","type":"uint256"},{"internalType":"uint256","name":"truePriceTokenB","type":"uint256"},{"internalType":"uint256","name":"liquidityAmount","type":"uint256"}],"name":"getGasCostOfGetLiquidityValueAfterArbitrageToPrice","outputs":[{"internalType":"uint256","name":"","type":"uint256"}],"stateMutability":"view","type":"function"},{"inputs":[{"internalType":"address","name":"tokenA","type":"address"},{"internalType":"address","name":"tokenB","type":"address"},{"internalType":"uint256","name":"liquidityAmount","type":"uint256"}],"name":"getLiquidityValue","outputs":[{"internalType":"uint256","name":"tokenAAmount","type":"uint256"},{"internalType":"uint256","name":"tokenBAmount","type":"uint256"}],"stateMutability":"view","type":"function"},{"inputs":[{"internalType":"address","name":"tokenA","type":"address"},{"internalType":"address","name":"tokenB","type":"address"},{"internalType":"uint256","name":"truePriceTokenA","type":"uint256"},{"internalType":"uint256","name":"truePriceTokenB","type":"uint256"},{"internalType":"uint256","name":"liquidityAmount","type":"uint256"}],"name":"getLiquidityValueAfterArbitrageToPrice","outputs":[{"internalType":"uint256","name":"tokenAAmount","type":"uint256"},{"internalType":"uint256","name":"tokenBAmount","type":"uint256"}],"stateMutability":"view","type":"function"},{"inputs":[{"internalType":"address","name":"tokenA","type":"address"},{"internalType":"address","name":"tokenB","type":"address"},{"internalType":"uint256","name":"truePriceTokenA","type":"uint256"},{"internalType":"uint256","name":"truePriceTokenB","type":"uint256"}],"name":"getReservesAfterArbitrage","outputs":[{"internalType":"uint256","name":"reserveA","type":"uint256"},{"internalType":"uint256","name":"reserveB","type":"uint256"}],"stateMutability":"view","type":"function"}],"evm":{"bytecode":{"linkReferences":{},"object":"60a060405234801561001057600080fd5b506040516111b53803806111b58339818101604052602081101561003357600080fd5b5051606081901b6001600160601b0319166080526001600160a01b031661113a61007b600039806101b952806101f7528061023a528061027852806102a2525061113a6000f3fe608060405234801561001057600080fd5b50600436106100675760003560e01c806380caa3531161005057806380caa35314610103578063c45a015514610157578063d9b7a6e71461017b57610067565b80633558e94c1461006c57806369a2fcbd146100c1575b600080fd5b6100a86004803603608081101561008257600080fd5b506001600160a01b038135811691602081013590911690604081013590606001356101b1565b6040805192835260208301919091528051918290030190f35b6100a8600480360360a08110156100d757600080fd5b506001600160a01b038135811691602081013590911690604081013590606081013590608001356101ef565b610145600480360360a081101561011957600080fd5b506001600160a01b0381358116916020810135909116906040810135906060810135906080013561022f565b60408051918252519081900360200190f35b61015f610276565b604080516001600160a01b039092168252519081900360200190f35b6100a86004803603606081101561019157600080fd5b506001600160a01b0381358116916020810135909116906040013561029a565b6000806101e17f0000000000000000000000000000000000000000000000000000000000000000878787876102d5565b915091505b94509492505050565b6000806102207f0000000000000000000000000000000000000000000000000000000000000000888888888861039a565b915091505b9550959350505050565b6000805a90506102637f0000000000000000000000000000000000000000000000000000000000000000888888888861039a565b505060005a909103979650505050505050565b7f000000000000000000000000000000000000000000000000000000000000000081565b6000806102c97f000000000000000000000000000000000000000000000000000000000000000086868661058b565b91509150935093915050565b6000806102e387878761072d565b909250905081158015906102f75750600081115b6103325760405162461bcd60e51b815260040180806020018281038252602e815260200180611035602e913960400191505060405180910390fd5b600080610341868686866107fb565b91509150806000141561035657506102259050565b81156103775760006103698286866108e6565b94820194909303925061038e565b60006103848285876108e6565b9094039350918201915b50509550959350505050565b6000806000806001600160a01b0316896001600160a01b031663017e7e586040518163ffffffff1660e01b815260040160206040518083038186803b1580156103e257600080fd5b505afa1580156103f6573d6000803e3d6000fd5b505050506040513d602081101561040c57600080fd5b50516001600160a01b03161415905060006104288a8a8a6109d6565b905060008261043857600061049e565b816001600160a01b0316637464fc3d6040518163ffffffff1660e01b815260040160206040518083038186803b15801561047157600080fd5b505afa158015610485573d6000803e3d6000fd5b505050506040513d602081101561049b57600080fd5b50515b90506000826001600160a01b03166318160ddd6040518163ffffffff1660e01b815260040160206040518083038186803b1580156104db57600080fd5b505afa1580156104ef573d6000803e3d6000fd5b505050506040513d602081101561050557600080fd5b505190508681108015906105195750600087115b6105545760405162461bcd60e51b81526004018080602001828103825260278152602001806110de6027913960400191505060405180910390fd5b6000806105648e8e8e8e8e6102d5565b915091506105768282858c8a89610aae565b97509750505050505050965096945050505050565b60008060008061059c88888861072d565b9150915060006105ad8989896109d6565b90506000806001600160a01b03168a6001600160a01b031663017e7e586040518163ffffffff1660e01b815260040160206040518083038186803b1580156105f457600080fd5b505afa158015610608573d6000803e3d6000fd5b505050506040513d602081101561061e57600080fd5b50516001600160a01b03161415905060008161063b5760006106a1565b826001600160a01b0316637464fc3d6040518163ffffffff1660e01b815260040160206040518083038186803b15801561067457600080fd5b505afa158015610688573d6000803e3d6000fd5b505050506040513d602081101561069e57600080fd5b50515b90506000836001600160a01b03166318160ddd6040518163ffffffff1660e01b815260040160206040518083038186803b1580156106de57600080fd5b505afa1580156106f2573d6000803e3d6000fd5b505050506040513d602081101561070857600080fd5b5051905061071a8686838c8787610aae565b9750975050505050505094509492505050565b600080600061073c8585610b87565b50905060008061074d8888886109d6565b6001600160a01b0316630902f1ac6040518163ffffffff1660e01b815260040160606040518083038186803b15801561078557600080fd5b505afa158015610799573d6000803e3d6000fd5b505050506040513d60608110156107af57600080fd5b5080516020909101516dffffffffffffffffffffffffffff91821693501690506001600160a01b03878116908416146107e95780826107ec565b81815b90999098509650505050505050565b6000808561080a858786610c65565b109150600061081f858563ffffffff610d2016565b9050600061087161086c61083b846103e863ffffffff610d2016565b866108465789610848565b8a5b6108676103e589610859578d61085b565b8c5b9063ffffffff610d2016565b610c65565b610d92565b905060006103e5856108945761088f876103e863ffffffff610d2016565b6108a6565b6108a6886103e863ffffffff610d2016565b816108ad57fe5b049050808210156108c85750600093508392506101e6915050565b6108d8828263ffffffff610ee716565b935050505094509492505050565b60008084116109265760405162461bcd60e51b815260040180806020018281038252602c8152602001806110b2602c913960400191505060405180910390fd5b6000831180156109365750600082115b6109715760405162461bcd60e51b81526004018080602001828103825260298152602001806110896029913960400191505060405180910390fd5b6000610985856103e563ffffffff610d2016565b90506000610999828563ffffffff610d2016565b905060006109bf836109b3886103e863ffffffff610d2016565b9063ffffffff610f3f16565b90508082816109ca57fe5b04979650505050505050565b60008060006109e58585610b87565b604080516bffffffffffffffffffffffff19606094851b811660208084019190915293851b81166034830152825160288184030181526048830184528051908501207fff0000000000000000000000000000000000000000000000000000000000000060688401529a90941b9093166069840152607d8301989098527f04d940293fc0d27cc90b5d4318c1e679a6446d9019ae8b33f565843f2a7f13e8609d808401919091528851808403909101815260bd909201909752805196019590952095945050505050565b600080838015610abe5750600083115b15610b46576000610ad861086c8a8a63ffffffff610d2016565b90506000610ae585610d92565b905080821115610b4357876000610b02848463ffffffff610ee716565b90506000610b1b846109b387600563ffffffff610d2016565b90506000610b2a848484610c65565b9050610b3c8c8263ffffffff610f3f16565b9b50505050505b50505b85610b57898763ffffffff610d2016565b81610b5e57fe5b0486610b70898863ffffffff610d2016565b81610b7757fe5b0491509150965096945050505050565b600080826001600160a01b0316846001600160a01b03161415610bdb5760405162461bcd60e51b81526004018080602001828103825260268152602001806110636026913960400191505060405180910390fd5b826001600160a01b0316846001600160a01b031610610bfb578284610bfe565b83835b90925090506001600160a01b038216610c5e576040805162461bcd60e51b815260206004820152601f60248201527f4e6f6d697377617056324c6962726172793a205a45524f5f4144445245535300604482015290519081900360640190fd5b9250929050565b6000806000610c748686610f97565b9150915060008480610c8257fe5b868809905082811115610c96576001820391505b918290039181610cb457848381610ca957fe5b049350505050610d19565b848210610d08576040805162461bcd60e51b815260206004820152601a60248201527f46756c6c4d6174683a2046554c4c4449565f4f564552464c4f57000000000000604482015290519081900360640190fd5b610d13838387610fc4565b93505050505b9392505050565b6000811580610d3b57505080820282828281610d3857fe5b04145b610d8c576040805162461bcd60e51b815260206004820152601460248201527f64732d6d6174682d6d756c2d6f766572666c6f77000000000000000000000000604482015290519081900360640190fd5b92915050565b600081610da157506000610ee2565b8160017001000000000000000000000000000000008210610dc75760809190911c9060401b5b680100000000000000008210610de25760409190911c9060201b5b6401000000008210610df95760209190911c9060101b5b620100008210610e0e5760109190911c9060081b5b6101008210610e225760089190911c9060041b5b60108210610e355760049190911c9060021b5b60088210610e415760011b5b6001818581610e4c57fe5b048201901c90506001818581610e5e57fe5b048201901c90506001818581610e7057fe5b048201901c90506001818581610e8257fe5b048201901c90506001818581610e9457fe5b048201901c90506001818581610ea657fe5b048201901c90506001818581610eb857fe5b048201901c90506000818581610eca57fe5b049050808210610eda5780610edc565b815b93505050505b919050565b80820382811115610d8c576040805162461bcd60e51b815260206004820152601560248201527f64732d6d6174682d7375622d756e646572666c6f770000000000000000000000604482015290519081900360640190fd5b80820182811015610d8c576040805162461bcd60e51b815260206004820152601460248201527f64732d6d6174682d6164642d6f766572666c6f77000000000000000000000000604482015290519081900360640190fd5b6000808060001984860990508385029250828103915082811015610fbc576001820391505b509250929050565b60008181038216808381610fd457fe5b049250808581610fe057fe5b049450808160000381610fef57fe5b6002858103808702820302808702820302808702820302808702820302808702820302808702820302958602900390940293046001019390930293909301029291505056fe4e6f6d697377617056324172626974726167654c6962726172793a205a45524f5f504149525f52455345525645534e6f6d697377617056324c6962726172793a204944454e544943414c5f4144445245535345534e6f6d697377617056324c6962726172793a20494e53554646494349454e545f4c49515549444954594e6f6d697377617056324c6962726172793a20494e53554646494349454e545f494e5055545f414d4f554e54436f6d707574654c697175696469747956616c75653a204c49515549444954595f414d4f554e54a2646970667358221220330ede3975c3c51af42800e5d3807a78e63e00d45abdc0b11596991813e3af9164736f6c63430006060033","opcodes":"PUSH1 0xA0 PUSH1 0x40 MSTORE CALLVALUE DUP1 ISZERO PUSH2 0x10 JUMPI PUSH1 0x0 DUP1 REVERT JUMPDEST POP PUSH1 0x40 MLOAD PUSH2 0x11B5 CODESIZE SUB DUP1 PUSH2 0x11B5 DUP4 CODECOPY DUP2 DUP2 ADD PUSH1 0x40 MSTORE PUSH1 0x20 DUP2 LT ISZERO PUSH2 0x33 JUMPI PUSH1 0x0 DUP1 REVERT JUMPDEST POP MLOAD PUSH1 0x60 DUP2 SWAP1 SHL PUSH1 0x1 PUSH1 0x1 PUSH1 0x60 SHL SUB NOT AND PUSH1 0x80 MSTORE PUSH1 0x1 PUSH1 0x1 PUSH1 0xA0 SHL SUB AND PUSH2 0x113A PUSH2 0x7B PUSH1 0x0 CODECOPY DUP1 PUSH2 0x1B9 MSTORE DUP1 PUSH2 0x1F7 MSTORE DUP1 PUSH2 0x23A MSTORE DUP1 PUSH2 0x278 MSTORE DUP1 PUSH2 0x2A2 MSTORE POP PUSH2 0x113A PUSH1 0x0 RETURN INVALID PUSH1 0x80 PUSH1 0x40 MSTORE CALLVALUE DUP1 ISZERO PUSH2 0x10 JUMPI PUSH1 0x0 DUP1 REVERT JUMPDEST POP PUSH1 0x4 CALLDATASIZE LT PUSH2 0x67 JUMPI PUSH1 0x0 CALLDATALOAD PUSH1 0xE0 SHR DUP1 PUSH4 0x80CAA353 GT PUSH2 0x50 JUMPI DUP1 PUSH4 0x80CAA353 EQ PUSH2 0x103 JUMPI DUP1 PUSH4 0xC45A0155 EQ PUSH2 0x157 JUMPI DUP1 PUSH4 0xD9B7A6E7 EQ PUSH2 0x17B JUMPI PUSH2 0x67 JUMP JUMPDEST DUP1 PUSH4 0x3558E94C EQ PUSH2 0x6C JUMPI DUP1 PUSH4 0x69A2FCBD EQ PUSH2 0xC1 JUMPI JUMPDEST PUSH1 0x0 DUP1 REVERT JUMPDEST PUSH2 0xA8 PUSH1 0x4 DUP1 CALLDATASIZE SUB PUSH1 0x80 DUP2 LT ISZERO PUSH2 0x82 JUMPI PUSH1 0x0 DUP1 REVERT JUMPDEST POP PUSH1 0x1 PUSH1 0x1 PUSH1 0xA0 SHL SUB DUP2 CALLDATALOAD DUP2 AND SWAP2 PUSH1 0x20 DUP2 ADD CALLDATALOAD SWAP1 SWAP2 AND SWAP1 PUSH1 0x40 DUP2 ADD CALLDATALOAD SWAP1 PUSH1 0x60 ADD CALLDATALOAD PUSH2 0x1B1 JUMP JUMPDEST PUSH1 0x40 DUP1 MLOAD SWAP3 DUP4 MSTORE PUSH1 0x20 DUP4 ADD SWAP2 SWAP1 SWAP2 MSTORE DUP1 MLOAD SWAP2 DUP3 SWAP1 SUB ADD SWAP1 RETURN JUMPDEST PUSH2 0xA8 PUSH1 0x4 DUP1 CALLDATASIZE SUB PUSH1 0xA0 DUP2 LT ISZERO PUSH2 0xD7 JUMPI PUSH1 0x0 DUP1 REVERT JUMPDEST POP PUSH1 0x1 PUSH1 0x1 PUSH1 0xA0 SHL SUB DUP2 CALLDATALOAD DUP2 AND SWAP2 PUSH1 0x20 DUP2 ADD CALLDATALOAD SWAP1 SWAP2 AND SWAP1 PUSH1 0x40 DUP2 ADD CALLDATALOAD SWAP1 PUSH1 0x60 DUP2 ADD CALLDATALOAD SWAP1 PUSH1 0x80 ADD CALLDATALOAD PUSH2 0x1EF JUMP JUMPDEST PUSH2 0x145 PUSH1 0x4 DUP1 CALLDATASIZE SUB PUSH1 0xA0 DUP2 LT ISZERO PUSH2 0x119 JUMPI PUSH1 0x0 DUP1 REVERT JUMPDEST POP PUSH1 0x1 PUSH1 0x1 PUSH1 0xA0 SHL SUB DUP2 CALLDATALOAD DUP2 AND SWAP2 PUSH1 0x20 DUP2 ADD CALLDATALOAD SWAP1 SWAP2 AND SWAP1 PUSH1 0x40 DUP2 ADD CALLDATALOAD SWAP1 PUSH1 0x60 DUP2 ADD CALLDATALOAD SWAP1 PUSH1 0x80 ADD CALLDATALOAD PUSH2 0x22F JUMP JUMPDEST PUSH1 0x40 DUP1 MLOAD SWAP2 DUP3 MSTORE MLOAD SWAP1 DUP2 SWAP1 SUB PUSH1 0x20 ADD SWAP1 RETURN JUMPDEST PUSH2 0x15F PUSH2 0x276 JUMP JUMPDEST PUSH1 0x40 DUP1 MLOAD PUSH1 0x1 PUSH1 0x1 PUSH1 0xA0 SHL SUB SWAP1 SWAP3 AND DUP3 MSTORE MLOAD SWAP1 DUP2 SWAP1 SUB PUSH1 0x20 ADD SWAP1 RETURN JUMPDEST PUSH2 0xA8 PUSH1 0x4 DUP1 CALLDATASIZE SUB PUSH1 0x60 DUP2 LT ISZERO PUSH2 0x191 JUMPI PUSH1 0x0 DUP1 REVERT JUMPDEST POP PUSH1 0x1 PUSH1 0x1 PUSH1 0xA0 SHL SUB DUP2 CALLDATALOAD DUP2 AND SWAP2 PUSH1 0x20 DUP2 ADD CALLDATALOAD SWAP1 SWAP2 AND SWAP1 PUSH1 0x40 ADD CALLDATALOAD PUSH2 0x29A JUMP JUMPDEST PUSH1 0x0 DUP1 PUSH2 0x1E1 PUSH32 0x0 DUP8 DUP8 DUP8 DUP8 PUSH2 0x2D5 JUMP JUMPDEST SWAP2 POP SWAP2 POP JUMPDEST SWAP5 POP SWAP5 SWAP3 POP POP POP JUMP JUMPDEST PUSH1 0x0 DUP1 PUSH2 0x220 PUSH32 0x0 DUP9 DUP9 DUP9 DUP9 DUP9 PUSH2 0x39A JUMP JUMPDEST SWAP2 POP SWAP2 POP JUMPDEST SWAP6 POP SWAP6 SWAP4 POP POP POP POP JUMP JUMPDEST PUSH1 0x0 DUP1 GAS SWAP1 POP PUSH2 0x263 PUSH32 0x0 DUP9 DUP9 DUP9 DUP9 DUP9 PUSH2 0x39A JUMP JUMPDEST POP POP PUSH1 0x0 GAS SWAP1 SWAP2 SUB SWAP8 SWAP7 POP POP POP POP POP POP POP JUMP JUMPDEST PUSH32 0x0 DUP2 JUMP JUMPDEST PUSH1 0x0 DUP1 PUSH2 0x2C9 PUSH32 0x0 DUP7 DUP7 DUP7 PUSH2 0x58B JUMP JUMPDEST SWAP2 POP SWAP2 POP SWAP4 POP SWAP4 SWAP2 POP POP JUMP JUMPDEST PUSH1 0x0 DUP1 PUSH2 0x2E3 DUP8 DUP8 DUP8 PUSH2 0x72D JUMP JUMPDEST SWAP1 SWAP3 POP SWAP1 POP DUP2 ISZERO DUP1 ISZERO SWAP1 PUSH2 0x2F7 JUMPI POP PUSH1 0x0 DUP2 GT JUMPDEST PUSH2 0x332 JUMPI PUSH1 0x40 MLOAD PUSH3 0x461BCD PUSH1 0xE5 SHL DUP2 MSTORE PUSH1 0x4 ADD DUP1 DUP1 PUSH1 0x20 ADD DUP3 DUP2 SUB DUP3 MSTORE PUSH1 0x2E DUP2 MSTORE PUSH1 0x20 ADD DUP1 PUSH2 0x1035 PUSH1 0x2E SWAP2 CODECOPY PUSH1 0x40 ADD SWAP2 POP POP PUSH1 0x40 MLOAD DUP1 SWAP2 SUB SWAP1 REVERT JUMPDEST PUSH1 0x0 DUP1 PUSH2 0x341 DUP7 DUP7 DUP7 DUP7 PUSH2 0x7FB JUMP JUMPDEST SWAP2 POP SWAP2 POP DUP1 PUSH1 0x0 EQ ISZERO PUSH2 0x356 JUMPI POP PUSH2 0x225 SWAP1 POP JUMP JUMPDEST DUP2 ISZERO PUSH2 0x377 JUMPI PUSH1 0x0 PUSH2 0x369 DUP3 DUP7 DUP7 PUSH2 0x8E6 JUMP JUMPDEST SWAP5 DUP3 ADD SWAP5 SWAP1 SWAP4 SUB SWAP3 POP PUSH2 0x38E JUMP JUMPDEST PUSH1 0x0 PUSH2 0x384 DUP3 DUP6 DUP8 PUSH2 0x8E6 JUMP JUMPDEST SWAP1 SWAP5 SUB SWAP4 POP SWAP2 DUP3 ADD SWAP2 JUMPDEST POP POP SWAP6 POP SWAP6 SWAP4 POP POP POP POP JUMP JUMPDEST PUSH1 0x0 DUP1 PUSH1 0x0 DUP1 PUSH1 0x1 PUSH1 0x1 PUSH1 0xA0 SHL SUB AND DUP10 PUSH1 0x1 PUSH1 0x1 PUSH1 0xA0 SHL SUB AND PUSH4 0x17E7E58 PUSH1 0x40 MLOAD DUP2 PUSH4 0xFFFFFFFF AND PUSH1 0xE0 SHL DUP2 MSTORE PUSH1 0x4 ADD PUSH1 0x20 PUSH1 0x40 MLOAD DUP1 DUP4 SUB DUP2 DUP7 DUP1 EXTCODESIZE ISZERO DUP1 ISZERO PUSH2 0x3E2 JUMPI PUSH1 0x0 DUP1 REVERT JUMPDEST POP GAS STATICCALL ISZERO DUP1 ISZERO PUSH2 0x3F6 JUMPI RETURNDATASIZE PUSH1 0x0 DUP1 RETURNDATACOPY RETURNDATASIZE PUSH1 0x0 REVERT JUMPDEST POP POP POP POP PUSH1 0x40 MLOAD RETURNDATASIZE PUSH1 0x20 DUP2 LT ISZERO PUSH2 0x40C JUMPI PUSH1 0x0 DUP1 REVERT JUMPDEST POP MLOAD PUSH1 0x1 PUSH1 0x1 PUSH1 0xA0 SHL SUB AND EQ ISZERO SWAP1 POP PUSH1 0x0 PUSH2 0x428 DUP11 DUP11 DUP11 PUSH2 0x9D6 JUMP JUMPDEST SWAP1 POP PUSH1 0x0 DUP3 PUSH2 0x438 JUMPI PUSH1 0x0 PUSH2 0x49E JUMP JUMPDEST DUP2 PUSH1 0x1 PUSH1 0x1 PUSH1 0xA0 SHL SUB AND PUSH4 0x7464FC3D PUSH1 0x40 MLOAD DUP2 PUSH4 0xFFFFFFFF AND PUSH1 0xE0 SHL DUP2 MSTORE PUSH1 0x4 ADD PUSH1 0x20 PUSH1 0x40 MLOAD DUP1 DUP4 SUB DUP2 DUP7 DUP1 EXTCODESIZE ISZERO DUP1 ISZERO PUSH2 0x471 JUMPI PUSH1 0x0 DUP1 REVERT JUMPDEST POP GAS STATICCALL ISZERO DUP1 ISZERO PUSH2 0x485 JUMPI RETURNDATASIZE PUSH1 0x0 DUP1 RETURNDATACOPY RETURNDATASIZE PUSH1 0x0 REVERT JUMPDEST POP POP POP POP PUSH1 0x40 MLOAD RETURNDATASIZE PUSH1 0x20 DUP2 LT ISZERO PUSH2 0x49B JUMPI PUSH1 0x0 DUP1 REVERT JUMPDEST POP MLOAD JUMPDEST SWAP1 POP PUSH1 0x0 DUP3 PUSH1 0x1 PUSH1 0x1 PUSH1 0xA0 SHL SUB AND PUSH4 0x18160DDD PUSH1 0x40 MLOAD DUP2 PUSH4 0xFFFFFFFF AND PUSH1 0xE0 SHL DUP2 MSTORE PUSH1 0x4 ADD PUSH1 0x20 PUSH1 0x40 MLOAD DUP1 DUP4 SUB DUP2 DUP7 DUP1 EXTCODESIZE ISZERO DUP1 ISZERO PUSH2 0x4DB JUMPI PUSH1 0x0 DUP1 REVERT JUMPDEST POP GAS STATICCALL ISZERO DUP1 ISZERO PUSH2 0x4EF JUMPI RETURNDATASIZE PUSH1 0x0 DUP1 RETURNDATACOPY RETURNDATASIZE PUSH1 0x0 REVERT JUMPDEST POP POP POP POP PUSH1 0x40 MLOAD RETURNDATASIZE PUSH1 0x20 DUP2 LT ISZERO PUSH2 0x505 JUMPI PUSH1 0x0 DUP1 REVERT JUMPDEST POP MLOAD SWAP1 POP DUP7 DUP2 LT DUP1 ISZERO SWAP1 PUSH2 0x519 JUMPI POP PUSH1 0x0 DUP8 GT JUMPDEST PUSH2 0x554 JUMPI PUSH1 0x40 MLOAD PUSH3 0x461BCD PUSH1 0xE5 SHL DUP2 MSTORE PUSH1 0x4 ADD DUP1 DUP1 PUSH1 0x20 ADD DUP3 DUP2 SUB DUP3 MSTORE PUSH1 0x27 DUP2 MSTORE PUSH1 0x20 ADD DUP1 PUSH2 0x10DE PUSH1 0x27 SWAP2 CODECOPY PUSH1 0x40 ADD SWAP2 POP POP PUSH1 0x40 MLOAD DUP1 SWAP2 SUB SWAP1 REVERT JUMPDEST PUSH1 0x0 DUP1 PUSH2 0x564 DUP15 DUP15 DUP15 DUP15 DUP15 PUSH2 0x2D5 JUMP JUMPDEST SWAP2 POP SWAP2 POP PUSH2 0x576 DUP3 DUP3 DUP6 DUP13 DUP11 DUP10 PUSH2 0xAAE JUMP JUMPDEST SWAP8 POP SWAP8 POP POP POP POP POP POP POP SWAP7 POP SWAP7 SWAP5 POP POP POP POP POP JUMP JUMPDEST PUSH1 0x0 DUP1 PUSH1 0x0 DUP1 PUSH2 0x59C DUP9 DUP9 DUP9 PUSH2 0x72D JUMP JUMPDEST SWAP2 POP SWAP2 POP PUSH1 0x0 PUSH2 0x5AD DUP10 DUP10 DUP10 PUSH2 0x9D6 JUMP JUMPDEST SWAP1 POP PUSH1 0x0 DUP1 PUSH1 0x1 PUSH1 0x1 PUSH1 0xA0 SHL SUB AND DUP11 PUSH1 0x1 PUSH1 0x1 PUSH1 0xA0 SHL SUB AND PUSH4 0x17E7E58 PUSH1 0x40 MLOAD DUP2 PUSH4 0xFFFFFFFF AND PUSH1 0xE0 SHL DUP2 MSTORE PUSH1 0x4 ADD PUSH1 0x20 PUSH1 0x40 MLOAD DUP1 DUP4 SUB DUP2 DUP7 DUP1 EXTCODESIZE ISZERO DUP1 ISZERO PUSH2 0x5F4 JUMPI PUSH1 0x0 DUP1 REVERT JUMPDEST POP GAS STATICCALL ISZERO DUP1 ISZERO PUSH2 0x608 JUMPI RETURNDATASIZE PUSH1 0x0 DUP1 RETURNDATACOPY RETURNDATASIZE PUSH1 0x0 REVERT JUMPDEST POP POP POP POP PUSH1 0x40 MLOAD RETURNDATASIZE PUSH1 0x20 DUP2 LT ISZERO PUSH2 0x61E JUMPI PUSH1 0x0 DUP1 REVERT JUMPDEST POP MLOAD PUSH1 0x1 PUSH1 0x1 PUSH1 0xA0 SHL SUB AND EQ ISZERO SWAP1 POP PUSH1 0x0 DUP2 PUSH2 0x63B JUMPI PUSH1 0x0 PUSH2 0x6A1 JUMP JUMPDEST DUP3 PUSH1 0x1 PUSH1 0x1 PUSH1 0xA0 SHL SUB AND PUSH4 0x7464FC3D PUSH1 0x40 MLOAD DUP2 PUSH4 0xFFFFFFFF AND PUSH1 0xE0 SHL DUP2 MSTORE PUSH1 0x4 ADD PUSH1 0x20 PUSH1 0x40 MLOAD DUP1 DUP4 SUB DUP2 DUP7 DUP1 EXTCODESIZE ISZERO DUP1 ISZERO PUSH2 0x674 JUMPI PUSH1 0x0 DUP1 REVERT JUMPDEST POP GAS STATICCALL ISZERO DUP1 ISZERO PUSH2 0x688 JUMPI RETURNDATASIZE PUSH1 0x0 DUP1 RETURNDATACOPY RETURNDATASIZE PUSH1 0x0 REVERT JUMPDEST POP POP POP POP PUSH1 0x40 MLOAD RETURNDATASIZE PUSH1 0x20 DUP2 LT ISZERO PUSH2 0x69E JUMPI PUSH1 0x0 DUP1 REVERT JUMPDEST POP MLOAD JUMPDEST SWAP1 POP PUSH1 0x0 DUP4 PUSH1 0x1 PUSH1 0x1 PUSH1 0xA0 SHL SUB AND PUSH4 0x18160DDD PUSH1 0x40 MLOAD DUP2 PUSH4 0xFFFFFFFF AND PUSH1 0xE0 SHL DUP2 MSTORE PUSH1 0x4 ADD PUSH1 0x20 PUSH1 0x40 MLOAD DUP1 DUP4 SUB DUP2 DUP7 DUP1 EXTCODESIZE ISZERO DUP1 ISZERO PUSH2 0x6DE JUMPI PUSH1 0x0 DUP1 REVERT JUMPDEST POP GAS STATICCALL ISZERO DUP1 ISZERO PUSH2 0x6F2 JUMPI RETURNDATASIZE PUSH1 0x0 DUP1 RETURNDATACOPY RETURNDATASIZE PUSH1 0x0 REVERT JUMPDEST POP POP POP POP PUSH1 0x40 MLOAD RETURNDATASIZE PUSH1 0x20 DUP2 LT ISZERO PUSH2 0x708 JUMPI PUSH1 0x0 DUP1 REVERT JUMPDEST POP MLOAD SWAP1 POP PUSH2 0x71A DUP7 DUP7 DUP4 DUP13 DUP8 DUP8 PUSH2 0xAAE JUMP JUMPDEST SWAP8 POP SWAP8 POP POP POP POP POP POP POP SWAP5 POP SWAP5 SWAP3 POP POP POP JUMP JUMPDEST PUSH1 0x0 DUP1 PUSH1 0x0 PUSH2 0x73C DUP6 DUP6 PUSH2 0xB87 JUMP JUMPDEST POP SWAP1 POP PUSH1 0x0 DUP1 PUSH2 0x74D DUP9 DUP9 DUP9 PUSH2 0x9D6 JUMP JUMPDEST PUSH1 0x1 PUSH1 0x1 PUSH1 0xA0 SHL SUB AND PUSH4 0x902F1AC PUSH1 0x40 MLOAD DUP2 PUSH4 0xFFFFFFFF AND PUSH1 0xE0 SHL DUP2 MSTORE PUSH1 0x4 ADD PUSH1 0x60 PUSH1 0x40 MLOAD DUP1 DUP4 SUB DUP2 DUP7 DUP1 EXTCODESIZE ISZERO DUP1 ISZERO PUSH2 0x785 JUMPI PUSH1 0x0 DUP1 REVERT JUMPDEST POP GAS STATICCALL ISZERO DUP1 ISZERO PUSH2 0x799 JUMPI RETURNDATASIZE PUSH1 0x0 DUP1 RETURNDATACOPY RETURNDATASIZE PUSH1 0x0 REVERT JUMPDEST POP POP POP POP PUSH1 0x40 MLOAD RETURNDATASIZE PUSH1 0x60 DUP2 LT ISZERO PUSH2 0x7AF JUMPI PUSH1 0x0 DUP1 REVERT JUMPDEST POP DUP1 MLOAD PUSH1 0x20 SWAP1 SWAP2 ADD MLOAD PUSH14 0xFFFFFFFFFFFFFFFFFFFFFFFFFFFF SWAP2 DUP3 AND SWAP4 POP AND SWAP1 POP PUSH1 0x1 PUSH1 0x1 PUSH1 0xA0 SHL SUB DUP8 DUP2 AND SWAP1 DUP5 AND EQ PUSH2 0x7E9 JUMPI DUP1 DUP3 PUSH2 0x7EC JUMP JUMPDEST DUP2 DUP2 JUMPDEST SWAP1 SWAP10 SWAP1 SWAP9 POP SWAP7 POP POP POP POP POP POP POP JUMP JUMPDEST PUSH1 0x0 DUP1 DUP6 PUSH2 0x80A DUP6 DUP8 DUP7 PUSH2 0xC65 JUMP JUMPDEST LT SWAP2 POP PUSH1 0x0 PUSH2 0x81F DUP6 DUP6 PUSH4 0xFFFFFFFF PUSH2 0xD20 AND JUMP JUMPDEST SWAP1 POP PUSH1 0x0 PUSH2 0x871 PUSH2 0x86C PUSH2 0x83B DUP5 PUSH2 0x3E8 PUSH4 0xFFFFFFFF PUSH2 0xD20 AND JUMP JUMPDEST DUP7 PUSH2 0x846 JUMPI DUP10 PUSH2 0x848 JUMP JUMPDEST DUP11 JUMPDEST PUSH2 0x867 PUSH2 0x3E5 DUP10 PUSH2 0x859 JUMPI DUP14 PUSH2 0x85B JUMP JUMPDEST DUP13 JUMPDEST SWAP1 PUSH4 0xFFFFFFFF PUSH2 0xD20 AND JUMP JUMPDEST PUSH2 0xC65 JUMP JUMPDEST PUSH2 0xD92 JUMP JUMPDEST SWAP1 POP PUSH1 0x0 PUSH2 0x3E5 DUP6 PUSH2 0x894 JUMPI PUSH2 0x88F DUP8 PUSH2 0x3E8 PUSH4 0xFFFFFFFF PUSH2 0xD20 AND JUMP JUMPDEST PUSH2 0x8A6 JUMP JUMPDEST PUSH2 0x8A6 DUP9 PUSH2 0x3E8 PUSH4 0xFFFFFFFF PUSH2 0xD20 AND JUMP JUMPDEST DUP2 PUSH2 0x8AD JUMPI INVALID JUMPDEST DIV SWAP1 POP DUP1 DUP3 LT ISZERO PUSH2 0x8C8 JUMPI POP PUSH1 0x0 SWAP4 POP DUP4 SWAP3 POP PUSH2 0x1E6 SWAP2 POP POP JUMP JUMPDEST PUSH2 0x8D8 DUP3 DUP3 PUSH4 0xFFFFFFFF PUSH2 0xEE7 AND JUMP JUMPDEST SWAP4 POP POP POP POP SWAP5 POP SWAP5 SWAP3 POP POP POP JUMP JUMPDEST PUSH1 0x0 DUP1 DUP5 GT PUSH2 0x926 JUMPI PUSH1 0x40 MLOAD PUSH3 0x461BCD PUSH1 0xE5 SHL DUP2 MSTORE PUSH1 0x4 ADD DUP1 DUP1 PUSH1 0x20 ADD DUP3 DUP2 SUB DUP3 MSTORE PUSH1 0x2C DUP2 MSTORE PUSH1 0x20 ADD DUP1 PUSH2 0x10B2 PUSH1 0x2C SWAP2 CODECOPY PUSH1 0x40 ADD SWAP2 POP POP PUSH1 0x40 MLOAD DUP1 SWAP2 SUB SWAP1 REVERT JUMPDEST PUSH1 0x0 DUP4 GT DUP1 ISZERO PUSH2 0x936 JUMPI POP PUSH1 0x0 DUP3 GT JUMPDEST PUSH2 0x971 JUMPI PUSH1 0x40 MLOAD PUSH3 0x461BCD PUSH1 0xE5 SHL DUP2 MSTORE PUSH1 0x4 ADD DUP1 DUP1 PUSH1 0x20 ADD DUP3 DUP2 SUB DUP3 MSTORE PUSH1 0x29 DUP2 MSTORE PUSH1 0x20 ADD DUP1 PUSH2 0x1089 PUSH1 0x29 SWAP2 CODECOPY PUSH1 0x40 ADD SWAP2 POP POP PUSH1 0x40 MLOAD DUP1 SWAP2 SUB SWAP1 REVERT JUMPDEST PUSH1 0x0 PUSH2 0x985 DUP6 PUSH2 0x3E5 PUSH4 0xFFFFFFFF PUSH2 0xD20 AND JUMP JUMPDEST SWAP1 POP PUSH1 0x0 PUSH2 0x999 DUP3 DUP6 PUSH4 0xFFFFFFFF PUSH2 0xD20 AND JUMP JUMPDEST SWAP1 POP PUSH1 0x0 PUSH2 0x9BF DUP4 PUSH2 0x9B3 DUP9 PUSH2 0x3E8 PUSH4 0xFFFFFFFF PUSH2 0xD20 AND JUMP JUMPDEST SWAP1 PUSH4 0xFFFFFFFF PUSH2 0xF3F AND JUMP JUMPDEST SWAP1 POP DUP1 DUP3 DUP2 PUSH2 0x9CA JUMPI INVALID JUMPDEST DIV SWAP8 SWAP7 POP POP POP POP POP POP POP JUMP JUMPDEST PUSH1 0x0 DUP1 PUSH1 0x0 PUSH2 0x9E5 DUP6 DUP6 PUSH2 0xB87 JUMP JUMPDEST PUSH1 0x40 DUP1 MLOAD PUSH12 0xFFFFFFFFFFFFFFFFFFFFFFFF NOT PUSH1 0x60 SWAP5 DUP6 SHL DUP2 AND PUSH1 0x20 DUP1 DUP5 ADD SWAP2 SWAP1 SWAP2 MSTORE SWAP4 DUP6 SHL DUP2 AND PUSH1 0x34 DUP4 ADD MSTORE DUP3 MLOAD PUSH1 0x28 DUP2 DUP5 SUB ADD DUP2 MSTORE PUSH1 0x48 DUP4 ADD DUP5 MSTORE DUP1 MLOAD SWAP1 DUP6 ADD KECCAK256 PUSH32 0xFF00000000000000000000000000000000000000000000000000000000000000 PUSH1 0x68 DUP5 ADD MSTORE SWAP11 SWAP1 SWAP5 SHL SWAP1 SWAP4 AND PUSH1 0x69 DUP5 ADD MSTORE PUSH1 0x7D DUP4 ADD SWAP9 SWAP1 SWAP9 MSTORE PUSH32 0x4D940293FC0D27CC90B5D4318C1E679A6446D9019AE8B33F565843F2A7F13E8 PUSH1 0x9D DUP1 DUP5 ADD SWAP2 SWAP1 SWAP2 MSTORE DUP9 MLOAD DUP1 DUP5 SUB SWAP1 SWAP2 ADD DUP2 MSTORE PUSH1 0xBD SWAP1 SWAP3 ADD SWAP1 SWAP8 MSTORE DUP1 MLOAD SWAP7 ADD SWAP6 SWAP1 SWAP6 KECCAK256 SWAP6 SWAP5 POP POP POP POP POP JUMP JUMPDEST PUSH1 0x0 DUP1 DUP4 DUP1 ISZERO PUSH2 0xABE JUMPI POP PUSH1 0x0 DUP4 GT JUMPDEST ISZERO PUSH2 0xB46 JUMPI PUSH1 0x0 PUSH2 0xAD8 PUSH2 0x86C DUP11 DUP11 PUSH4 0xFFFFFFFF PUSH2 0xD20 AND JUMP JUMPDEST SWAP1 POP PUSH1 0x0 PUSH2 0xAE5 DUP6 PUSH2 0xD92 JUMP JUMPDEST SWAP1 POP DUP1 DUP3 GT ISZERO PUSH2 0xB43 JUMPI DUP8 PUSH1 0x0 PUSH2 0xB02 DUP5 DUP5 PUSH4 0xFFFFFFFF PUSH2 0xEE7 AND JUMP JUMPDEST SWAP1 POP PUSH1 0x0 PUSH2 0xB1B DUP5 PUSH2 0x9B3 DUP8 PUSH1 0x5 PUSH4 0xFFFFFFFF PUSH2 0xD20 AND JUMP JUMPDEST SWAP1 POP PUSH1 0x0 PUSH2 0xB2A DUP5 DUP5 DUP5 PUSH2 0xC65 JUMP JUMPDEST SWAP1 POP PUSH2 0xB3C DUP13 DUP3 PUSH4 0xFFFFFFFF PUSH2 0xF3F AND JUMP JUMPDEST SWAP12 POP POP POP POP POP JUMPDEST POP POP JUMPDEST DUP6 PUSH2 0xB57 DUP10 DUP8 PUSH4 0xFFFFFFFF PUSH2 0xD20 AND JUMP JUMPDEST DUP2 PUSH2 0xB5E JUMPI INVALID JUMPDEST DIV DUP7 PUSH2 0xB70 DUP10 DUP9 PUSH4 0xFFFFFFFF PUSH2 0xD20 AND JUMP JUMPDEST DUP2 PUSH2 0xB77 JUMPI INVALID JUMPDEST DIV SWAP2 POP SWAP2 POP SWAP7 POP SWAP7 SWAP5 POP POP POP POP POP JUMP JUMPDEST PUSH1 0x0 DUP1 DUP3 PUSH1 0x1 PUSH1 0x1 PUSH1 0xA0 SHL SUB AND DUP5 PUSH1 0x1 PUSH1 0x1 PUSH1 0xA0 SHL SUB AND EQ ISZERO PUSH2 0xBDB JUMPI PUSH1 0x40 MLOAD PUSH3 0x461BCD PUSH1 0xE5 SHL DUP2 MSTORE PUSH1 0x4 ADD DUP1 DUP1 PUSH1 0x20 ADD DUP3 DUP2 SUB DUP3 MSTORE PUSH1 0x26 DUP2 MSTORE PUSH1 0x20 ADD DUP1 PUSH2 0x1063 PUSH1 0x26 SWAP2 CODECOPY PUSH1 0x40 ADD SWAP2 POP POP PUSH1 0x40 MLOAD DUP1 SWAP2 SUB SWAP1 REVERT JUMPDEST DUP3 PUSH1 0x1 PUSH1 0x1 PUSH1 0xA0 SHL SUB AND DUP5 PUSH1 0x1 PUSH1 0x1 PUSH1 0xA0 SHL SUB AND LT PUSH2 0xBFB JUMPI DUP3 DUP5 PUSH2 0xBFE JUMP JUMPDEST DUP4 DUP4 JUMPDEST SWAP1 SWAP3 POP SWAP1 POP PUSH1 0x1 PUSH1 0x1 PUSH1 0xA0 SHL SUB DUP3 AND PUSH2 0xC5E JUMPI PUSH1 0x40 DUP1 MLOAD PUSH3 0x461BCD PUSH1 0xE5 SHL DUP2 MSTORE PUSH1 0x20 PUSH1 0x4 DUP3 ADD MSTORE PUSH1 0x1F PUSH1 0x24 DUP3 ADD MSTORE PUSH32 0x4E6F6D697377617056324C6962726172793A205A45524F5F4144445245535300 PUSH1 0x44 DUP3 ADD MSTORE SWAP1 MLOAD SWAP1 DUP2 SWAP1 SUB PUSH1 0x64 ADD SWAP1 REVERT JUMPDEST SWAP3 POP SWAP3 SWAP1 POP JUMP JUMPDEST PUSH1 0x0 DUP1 PUSH1 0x0 PUSH2 0xC74 DUP7 DUP7 PUSH2 0xF97 JUMP JUMPDEST SWAP2 POP SWAP2 POP PUSH1 0x0 DUP5 DUP1 PUSH2 0xC82 JUMPI INVALID JUMPDEST DUP7 DUP9 MULMOD SWAP1 POP DUP3 DUP2 GT ISZERO PUSH2 0xC96 JUMPI PUSH1 0x1 DUP3 SUB SWAP2 POP JUMPDEST SWAP2 DUP3 SWAP1 SUB SWAP2 DUP2 PUSH2 0xCB4 JUMPI DUP5 DUP4 DUP2 PUSH2 0xCA9 JUMPI INVALID JUMPDEST DIV SWAP4 POP POP POP POP PUSH2 0xD19 JUMP JUMPDEST DUP5 DUP3 LT PUSH2 0xD08 JUMPI PUSH1 0x40 DUP1 MLOAD PUSH3 0x461BCD PUSH1 0xE5 SHL DUP2 MSTORE PUSH1 0x20 PUSH1 0x4 DUP3 ADD MSTORE PUSH1 0x1A PUSH1 0x24 DUP3 ADD MSTORE PUSH32 0x46756C6C4D6174683A2046554C4C4449565F4F564552464C4F57000000000000 PUSH1 0x44 DUP3 ADD MSTORE SWAP1 MLOAD SWAP1 DUP2 SWAP1 SUB PUSH1 0x64 ADD SWAP1 REVERT JUMPDEST PUSH2 0xD13 DUP4 DUP4 DUP8 PUSH2 0xFC4 JUMP JUMPDEST SWAP4 POP POP POP POP JUMPDEST SWAP4 SWAP3 POP POP POP JUMP JUMPDEST PUSH1 0x0 DUP2 ISZERO DUP1 PUSH2 0xD3B JUMPI POP POP DUP1 DUP3 MUL DUP3 DUP3 DUP3 DUP2 PUSH2 0xD38 JUMPI INVALID JUMPDEST DIV EQ JUMPDEST PUSH2 0xD8C JUMPI PUSH1 0x40 DUP1 MLOAD PUSH3 0x461BCD PUSH1 0xE5 SHL DUP2 MSTORE PUSH1 0x20 PUSH1 0x4 DUP3 ADD MSTORE PUSH1 0x14 PUSH1 0x24 DUP3 ADD MSTORE PUSH32 0x64732D6D6174682D6D756C2D6F766572666C6F77000000000000000000000000 PUSH1 0x44 DUP3 ADD MSTORE SWAP1 MLOAD SWAP1 DUP2 SWAP1 SUB PUSH1 0x64 ADD SWAP1 REVERT JUMPDEST SWAP3 SWAP2 POP POP JUMP JUMPDEST PUSH1 0x0 DUP2 PUSH2 0xDA1 JUMPI POP PUSH1 0x0 PUSH2 0xEE2 JUMP JUMPDEST DUP2 PUSH1 0x1 PUSH17 0x100000000000000000000000000000000 DUP3 LT PUSH2 0xDC7 JUMPI PUSH1 0x80 SWAP2 SWAP1 SWAP2 SHR SWAP1 PUSH1 0x40 SHL JUMPDEST PUSH9 0x10000000000000000 DUP3 LT PUSH2 0xDE2 JUMPI PUSH1 0x40 SWAP2 SWAP1 SWAP2 SHR SWAP1 PUSH1 0x20 SHL JUMPDEST PUSH5 0x100000000 DUP3 LT PUSH2 0xDF9 JUMPI PUSH1 0x20 SWAP2 SWAP1 SWAP2 SHR SWAP1 PUSH1 0x10 SHL JUMPDEST PUSH3 0x10000 DUP3 LT PUSH2 0xE0E JUMPI PUSH1 0x10 SWAP2 SWAP1 SWAP2 SHR SWAP1 PUSH1 0x8 SHL JUMPDEST PUSH2 0x100 DUP3 LT PUSH2 0xE22 JUMPI PUSH1 0x8 SWAP2 SWAP1 SWAP2 SHR SWAP1 PUSH1 0x4 SHL JUMPDEST PUSH1 0x10 DUP3 LT PUSH2 0xE35 JUMPI PUSH1 0x4 SWAP2 SWAP1 SWAP2 SHR SWAP1 PUSH1 0x2 SHL JUMPDEST PUSH1 0x8 DUP3 LT PUSH2 0xE41 JUMPI PUSH1 0x1 SHL JUMPDEST PUSH1 0x1 DUP2 DUP6 DUP2 PUSH2 0xE4C JUMPI INVALID JUMPDEST DIV DUP3 ADD SWAP1 SHR SWAP1 POP PUSH1 0x1 DUP2 DUP6 DUP2 PUSH2 0xE5E JUMPI INVALID JUMPDEST DIV DUP3 ADD SWAP1 SHR SWAP1 POP PUSH1 0x1 DUP2 DUP6 DUP2 PUSH2 0xE70 JUMPI INVALID JUMPDEST DIV DUP3 ADD SWAP1 SHR SWAP1 POP PUSH1 0x1 DUP2 DUP6 DUP2 PUSH2 0xE82 JUMPI INVALID JUMPDEST DIV DUP3 ADD SWAP1 SHR SWAP1 POP PUSH1 0x1 DUP2 DUP6 DUP2 PUSH2 0xE94 JUMPI INVALID JUMPDEST DIV DUP3 ADD SWAP1 SHR SWAP1 POP PUSH1 0x1 DUP2 DUP6 DUP2 PUSH2 0xEA6 JUMPI INVALID JUMPDEST DIV DUP3 ADD SWAP1 SHR SWAP1 POP PUSH1 0x1 DUP2 DUP6 DUP2 PUSH2 0xEB8 JUMPI INVALID JUMPDEST DIV DUP3 ADD SWAP1 SHR SWAP1 POP PUSH1 0x0 DUP2 DUP6 DUP2 PUSH2 0xECA JUMPI INVALID JUMPDEST DIV SWAP1 POP DUP1 DUP3 LT PUSH2 0xEDA JUMPI DUP1 PUSH2 0xEDC JUMP JUMPDEST DUP2 JUMPDEST SWAP4 POP POP POP POP JUMPDEST SWAP2 SWAP1 POP JUMP JUMPDEST DUP1 DUP3 SUB DUP3 DUP2 GT ISZERO PUSH2 0xD8C JUMPI PUSH1 0x40 DUP1 MLOAD PUSH3 0x461BCD PUSH1 0xE5 SHL DUP2 MSTORE PUSH1 0x20 PUSH1 0x4 DUP3 ADD MSTORE PUSH1 0x15 PUSH1 0x24 DUP3 ADD MSTORE PUSH32 0x64732D6D6174682D7375622D756E646572666C6F770000000000000000000000 PUSH1 0x44 DUP3 ADD MSTORE SWAP1 MLOAD SWAP1 DUP2 SWAP1 SUB PUSH1 0x64 ADD SWAP1 REVERT JUMPDEST DUP1 DUP3 ADD DUP3 DUP2 LT ISZERO PUSH2 0xD8C JUMPI PUSH1 0x40 DUP1 MLOAD PUSH3 0x461BCD PUSH1 0xE5 SHL DUP2 MSTORE PUSH1 0x20 PUSH1 0x4 DUP3 ADD MSTORE PUSH1 0x14 PUSH1 0x24 DUP3 ADD MSTORE PUSH32 0x64732D6D6174682D6164642D6F766572666C6F77000000000000000000000000 PUSH1 0x44 DUP3 ADD MSTORE SWAP1 MLOAD SWAP1 DUP2 SWAP1 SUB PUSH1 0x64 ADD SWAP1 REVERT JUMPDEST PUSH1 0x0 DUP1 DUP1 PUSH1 0x0 NOT DUP5 DUP7 MULMOD SWAP1 POP DUP4 DUP6 MUL SWAP3 POP DUP3 DUP2 SUB SWAP2 POP DUP3 DUP2 LT ISZERO PUSH2 0xFBC JUMPI PUSH1 0x1 DUP3 SUB SWAP2 POP JUMPDEST POP SWAP3 POP SWAP3 SWAP1 POP JUMP JUMPDEST PUSH1 0x0 DUP2 DUP2 SUB DUP3 AND DUP1 DUP4 DUP2 PUSH2 0xFD4 JUMPI INVALID JUMPDEST DIV SWAP3 POP DUP1 DUP6 DUP2 PUSH2 0xFE0 JUMPI INVALID JUMPDEST DIV SWAP5 POP DUP1 DUP2 PUSH1 0x0 SUB DUP2 PUSH2 0xFEF JUMPI INVALID JUMPDEST PUSH1 0x2 DUP6 DUP2 SUB DUP1 DUP8 MUL DUP3 SUB MUL DUP1 DUP8 MUL DUP3 SUB MUL DUP1 DUP8 MUL DUP3 SUB MUL DUP1 DUP8 MUL DUP3 SUB MUL DUP1 DUP8 MUL DUP3 SUB MUL DUP1 DUP8 MUL DUP3 SUB MUL SWAP6 DUP7 MUL SWAP1 SUB SWAP1 SWAP5 MUL SWAP4 DIV PUSH1 0x1 ADD SWAP4 SWAP1 SWAP4 MUL SWAP4 SWAP1 SWAP4 ADD MUL SWAP3 SWAP2 POP POP JUMP INVALID 0x4E PUSH16 0x6D697377617056324172626974726167 PUSH6 0x4C6962726172 PUSH26 0x3A205A45524F5F504149525F52455345525645534E6F6D697377 PUSH2 0x7056 ORIGIN 0x4C PUSH10 0x62726172793A20494445 0x4E SLOAD 0x49 NUMBER COINBASE 0x4C 0x5F COINBASE DIFFICULTY DIFFICULTY MSTORE GASLIMIT MSTORE8 MSTORE8 GASLIMIT MSTORE8 0x4E PUSH16 0x6D697377617056324C6962726172793A KECCAK256 0x49 0x4E MSTORE8 SSTORE CHAINID CHAINID 0x49 NUMBER 0x49 GASLIMIT 0x4E SLOAD 0x5F 0x4C 0x49 MLOAD SSTORE 0x49 DIFFICULTY 0x49 SLOAD MSIZE 0x4E PUSH16 0x6D697377617056324C6962726172793A KECCAK256 0x49 0x4E MSTORE8 SSTORE CHAINID CHAINID 0x49 NUMBER 0x49 GASLIMIT 0x4E SLOAD 0x5F 0x49 0x4E POP SSTORE SLOAD 0x5F COINBASE 0x4D 0x4F SSTORE 0x4E SLOAD NUMBER PUSH16 0x6D707574654C69717569646974795661 PUSH13 0x75653A204C4951554944495459 0x5F COINBASE 0x4D 0x4F SSTORE 0x4E SLOAD LOG2 PUSH5 0x6970667358 0x22 SLT KECCAK256 CALLER 0xE 0xDE CODECOPY PUSH22 0xC3C51AF42800E5D3807A78E63E00D45ABDC0B1159699 XOR SGT 0xE3 0xAF SWAP2 PUSH5 0x736F6C6343 STOP MOD MOD STOP CALLER "},"methodIdentifiers":{"factory()":"c45a0155","getGasCostOfGetLiquidityValueAfterArbitrageToPrice(address,address,uint256,uint256,uint256)":"80caa353","getLiquidityValue(address,address,uint256)":"d9b7a6e7","getLiquidityValueAfterArbitrageToPrice(address,address,uint256,uint256,uint256)":"69a2fcbd","getReservesAfterArbitrage(address,address,uint256,uint256)":"3558e94c"}}}}}