{
  "_format": "hh-sol-artifact-1",
  "contractName": "NomiswapV2Router02",
  "sourceName": "contracts/NomiswapV2Router02.sol",
  "abi": [
    {
      "inputs": [
        {
          "internalType": "address",
          "name": "_factory",
          "type": "address"
        },
        {
          "internalType": "address",
          "name": "_WETH",
          "type": "address"
        }
      ],
      "stateMutability": "nonpayable",
      "type": "constructor"
    },
    {
      "inputs": [],
      "name": "WETH",
      "outputs": [
        {
          "internalType": "address",
          "name": "",
          "type": "address"
        }
      ],
      "stateMutability": "view",
      "type": "function"
    },
    {
      "inputs": [
        {
          "internalType": "address",
          "name": "tokenA",
          "type": "address"
        },
        {
          "internalType": "address",
          "name": "tokenB",
          "type": "address"
        },
        {
          "internalType": "uint256",
          "name": "amountADesired",
          "type": "uint256"
        },
        {
          "internalType": "uint256",
          "name": "amountBDesired",
          "type": "uint256"
        },
        {
          "internalType": "uint256",
          "name": "amountAMin",
          "type": "uint256"
        },
        {
          "internalType": "uint256",
          "name": "amountBMin",
          "type": "uint256"
        },
        {
          "internalType": "address",
          "name": "to",
          "type": "address"
        },
        {
          "internalType": "uint256",
          "name": "deadline",
          "type": "uint256"
        }
      ],
      "name": "addLiquidity",
      "outputs": [
        {
          "internalType": "uint256",
          "name": "amountA",
          "type": "uint256"
        },
        {
          "internalType": "uint256",
          "name": "amountB",
          "type": "uint256"
        },
        {
          "internalType": "uint256",
          "name": "liquidity",
          "type": "uint256"
        }
      ],
      "stateMutability": "nonpayable",
      "type": "function"
    },
    {
      "inputs": [
        {
          "internalType": "address",
          "name": "token",
          "type": "address"
        },
        {
          "internalType": "uint256",
          "name": "amountTokenDesired",
          "type": "uint256"
        },
        {
          "internalType": "uint256",
          "name": "amountTokenMin",
          "type": "uint256"
        },
        {
          "internalType": "uint256",
          "name": "amountETHMin",
          "type": "uint256"
        },
        {
          "internalType": "address",
          "name": "to",
          "type": "address"
        },
        {
          "internalType": "uint256",
          "name": "deadline",
          "type": "uint256"
        }
      ],
      "name": "addLiquidityETH",
      "outputs": [
        {
          "internalType": "uint256",
          "name": "amountToken",
          "type": "uint256"
        },
        {
          "internalType": "uint256",
          "name": "amountETH",
          "type": "uint256"
        },
        {
          "internalType": "uint256",
          "name": "liquidity",
          "type": "uint256"
        }
      ],
      "stateMutability": "payable",
      "type": "function"
    },
    {
      "inputs": [],
      "name": "factory",
      "outputs": [
        {
          "internalType": "address",
          "name": "",
          "type": "address"
        }
      ],
      "stateMutability": "view",
      "type": "function"
    },
    {
      "inputs": [
        {
          "internalType": "uint256",
          "name": "amountOut",
          "type": "uint256"
        },
        {
          "internalType": "uint256",
          "name": "reserveIn",
          "type": "uint256"
        },
        {
          "internalType": "uint256",
          "name": "reserveOut",
          "type": "uint256"
        }
      ],
      "name": "getAmountIn",
      "outputs": [
        {
          "internalType": "uint256",
          "name": "amountIn",
          "type": "uint256"
        }
      ],
      "stateMutability": "pure",
      "type": "function"
    },
    {
      "inputs": [
        {
          "internalType": "uint256",
          "name": "amountIn",
          "type": "uint256"
        },
        {
          "internalType": "uint256",
          "name": "reserveIn",
          "type": "uint256"
        },
        {
          "internalType": "uint256",
          "name": "reserveOut",
          "type": "uint256"
        }
      ],
      "name": "getAmountOut",
      "outputs": [
        {
          "internalType": "uint256",
          "name": "amountOut",
          "type": "uint256"
        }
      ],
      "stateMutability": "pure",
      "type": "function"
    },
    {
      "inputs": [
        {
          "internalType": "uint256",
          "name": "amountOut",
          "type": "uint256"
        },
        {
          "internalType": "address[]",
          "name": "path",
          "type": "address[]"
        }
      ],
      "name": "getAmountsIn",
      "outputs": [
        {
          "internalType": "uint256[]",
          "name": "amounts",
          "type": "uint256[]"
        }
      ],
      "stateMutability": "view",
      "type": "function"
    },
    {
      "inputs": [
        {
          "internalType": "uint256",
          "name": "amountIn",
          "type": "uint256"
        },
        {
          "internalType": "address[]",
          "name": "path",
          "type": "address[]"
        }
      ],
      "name": "getAmountsOut",
      "outputs": [
        {
          "internalType": "uint256[]",
          "name": "amounts",
          "type": "uint256[]"
        }
      ],
      "stateMutability": "view",
      "type": "function"
    },
    {
      "inputs": [
        {
          "internalType": "uint256",
          "name": "amountIn",
          "type": "uint256"
        },
        {
          "internalType": "uint256",
          "name": "reserveIn",
          "type": "uint256"
        },
        {
          "internalType": "uint256",
          "name": "reserveOut",
          "type": "uint256"
        }
      ],
      "name": "getP",
      "outputs": [
        {
          "internalType": "uint256",
          "name": "",
          "type": "uint256"
        }
      ],
      "stateMutability": "pure",
      "type": "function"
    },
    {
      "inputs": [
        {
          "internalType": "address",
          "name": "tokenA",
          "type": "address"
        },
        {
          "internalType": "address",
          "name": "tokenB",
          "type": "address"
        }
      ],
      "name": "getPairAddress",
      "outputs": [
        {
          "internalType": "address",
          "name": "",
          "type": "address"
        }
      ],
      "stateMutability": "view",
      "type": "function"
    },
    {
      "inputs": [
        {
          "internalType": "uint256",
          "name": "amountA",
          "type": "uint256"
        },
        {
          "internalType": "uint256",
          "name": "reserveA",
          "type": "uint256"
        },
        {
          "internalType": "uint256",
          "name": "reserveB",
          "type": "uint256"
        }
      ],
      "name": "quote",
      "outputs": [
        {
          "internalType": "uint256",
          "name": "amountB",
          "type": "uint256"
        }
      ],
      "stateMutability": "pure",
      "type": "function"
    },
    {
      "inputs": [
        {
          "internalType": "address",
          "name": "tokenA",
          "type": "address"
        },
        {
          "internalType": "address",
          "name": "tokenB",
          "type": "address"
        },
        {
          "internalType": "uint256",
          "name": "liquidity",
          "type": "uint256"
        },
        {
          "internalType": "uint256",
          "name": "amountAMin",
          "type": "uint256"
        },
        {
          "internalType": "uint256",
          "name": "amountBMin",
          "type": "uint256"
        },
        {
          "internalType": "address",
          "name": "to",
          "type": "address"
        },
        {
          "internalType": "uint256",
          "name": "deadline",
          "type": "uint256"
        }
      ],
      "name": "removeLiquidity",
      "outputs": [
        {
          "internalType": "uint256",
          "name": "amountA",
          "type": "uint256"
        },
        {
          "internalType": "uint256",
          "name": "amountB",
          "type": "uint256"
        }
      ],
      "stateMutability": "nonpayable",
      "type": "function"
    },
    {
      "inputs": [
        {
          "internalType": "address",
          "name": "token",
          "type": "address"
        },
        {
          "internalType": "uint256",
          "name": "liquidity",
          "type": "uint256"
        },
        {
          "internalType": "uint256",
          "name": "amountTokenMin",
          "type": "uint256"
        },
        {
          "internalType": "uint256",
          "name": "amountETHMin",
          "type": "uint256"
        },
        {
          "internalType": "address",
          "name": "to",
          "type": "address"
        },
        {
          "internalType": "uint256",
          "name": "deadline",
          "type": "uint256"
        }
      ],
      "name": "removeLiquidityETH",
      "outputs": [
        {
          "internalType": "uint256",
          "name": "amountToken",
          "type": "uint256"
        },
        {
          "internalType": "uint256",
          "name": "amountETH",
          "type": "uint256"
        }
      ],
      "stateMutability": "nonpayable",
      "type": "function"
    },
    {
      "inputs": [
        {
          "internalType": "address",
          "name": "token",
          "type": "address"
        },
        {
          "internalType": "uint256",
          "name": "liquidity",
          "type": "uint256"
        },
        {
          "internalType": "uint256",
          "name": "amountTokenMin",
          "type": "uint256"
        },
        {
          "internalType": "uint256",
          "name": "amountETHMin",
          "type": "uint256"
        },
        {
          "internalType": "address",
          "name": "to",
          "type": "address"
        },
        {
          "internalType": "uint256",
          "name": "deadline",
          "type": "uint256"
        }
      ],
      "name": "removeLiquidityETHSupportingFeeOnTransferTokens",
      "outputs": [
        {
          "internalType": "uint256",
          "name": "amountETH",
          "type": "uint256"
        }
      ],
      "stateMutability": "nonpayable",
      "type": "function"
    },
    {
      "inputs": [
        {
          "internalType": "address",
          "name": "token",
          "type": "address"
        },
        {
          "internalType": "uint256",
          "name": "liquidity",
          "type": "uint256"
        },
        {
          "internalType": "uint256",
          "name": "amountTokenMin",
          "type": "uint256"
        },
        {
          "internalType": "uint256",
          "name": "amountETHMin",
          "type": "uint256"
        },
        {
          "internalType": "address",
          "name": "to",
          "type": "address"
        },
        {
          "internalType": "uint256",
          "name": "deadline",
          "type": "uint256"
        },
        {
          "internalType": "bool",
          "name": "approveMax",
          "type": "bool"
        },
        {
          "internalType": "uint8",
          "name": "v",
          "type": "uint8"
        },
        {
          "internalType": "bytes32",
          "name": "r",
          "type": "bytes32"
        },
        {
          "internalType": "bytes32",
          "name": "s",
          "type": "bytes32"
        }
      ],
      "name": "removeLiquidityETHWithPermit",
      "outputs": [
        {
          "internalType": "uint256",
          "name": "amountToken",
          "type": "uint256"
        },
        {
          "internalType": "uint256",
          "name": "amountETH",
          "type": "uint256"
        }
      ],
      "stateMutability": "nonpayable",
      "type": "function"
    },
    {
      "inputs": [
        {
          "internalType": "address",
          "name": "token",
          "type": "address"
        },
        {
          "internalType": "uint256",
          "name": "liquidity",
          "type": "uint256"
        },
        {
          "internalType": "uint256",
          "name": "amountTokenMin",
          "type": "uint256"
        },
        {
          "internalType": "uint256",
          "name": "amountETHMin",
          "type": "uint256"
        },
        {
          "internalType": "address",
          "name": "to",
          "type": "address"
        },
        {
          "internalType": "uint256",
          "name": "deadline",
          "type": "uint256"
        },
        {
          "internalType": "bool",
          "name": "approveMax",
          "type": "bool"
        },
        {
          "internalType": "uint8",
          "name": "v",
          "type": "uint8"
        },
        {
          "internalType": "bytes32",
          "name": "r",
          "type": "bytes32"
        },
        {
          "internalType": "bytes32",
          "name": "s",
          "type": "bytes32"
        }
      ],
      "name": "removeLiquidityETHWithPermitSupportingFeeOnTransferTokens",
      "outputs": [
        {
          "internalType": "uint256",
          "name": "amountETH",
          "type": "uint256"
        }
      ],
      "stateMutability": "nonpayable",
      "type": "function"
    },
    {
      "inputs": [
        {
          "internalType": "address",
          "name": "tokenA",
          "type": "address"
        },
        {
          "internalType": "address",
          "name": "tokenB",
          "type": "address"
        },
        {
          "internalType": "uint256",
          "name": "liquidity",
          "type": "uint256"
        },
        {
          "internalType": "uint256",
          "name": "amountAMin",
          "type": "uint256"
        },
        {
          "internalType": "uint256",
          "name": "amountBMin",
          "type": "uint256"
        },
        {
          "internalType": "address",
          "name": "to",
          "type": "address"
        },
        {
          "internalType": "uint256",
          "name": "deadline",
          "type": "uint256"
        },
        {
          "internalType": "bool",
          "name": "approveMax",
          "type": "bool"
        },
        {
          "internalType": "uint8",
          "name": "v",
          "type": "uint8"
        },
        {
          "internalType": "bytes32",
          "name": "r",
          "type": "bytes32"
        },
        {
          "internalType": "bytes32",
          "name": "s",
          "type": "bytes32"
        }
      ],
      "name": "removeLiquidityWithPermit",
      "outputs": [
        {
          "internalType": "uint256",
          "name": "amountA",
          "type": "uint256"
        },
        {
          "internalType": "uint256",
          "name": "amountB",
          "type": "uint256"
        }
      ],
      "stateMutability": "nonpayable",
      "type": "function"
    },
    {
      "inputs": [
        {
          "internalType": "uint256",
          "name": "amountOut",
          "type": "uint256"
        },
        {
          "internalType": "address[]",
          "name": "path",
          "type": "address[]"
        },
        {
          "internalType": "address",
          "name": "to",
          "type": "address"
        },
        {
          "internalType": "uint256",
          "name": "deadline",
          "type": "uint256"
        }
      ],
      "name": "swapETHForExactTokens",
      "outputs": [
        {
          "internalType": "uint256[]",
          "name": "amounts",
          "type": "uint256[]"
        }
      ],
      "stateMutability": "payable",
      "type": "function"
    },
    {
      "inputs": [
        {
          "internalType": "uint256",
          "name": "amountOutMin",
          "type": "uint256"
        },
        {
          "internalType": "address[]",
          "name": "path",
          "type": "address[]"
        },
        {
          "internalType": "address",
          "name": "to",
          "type": "address"
        },
        {
          "internalType": "uint256",
          "name": "deadline",
          "type": "uint256"
        }
      ],
      "name": "swapExactETHForTokens",
      "outputs": [
        {
          "internalType": "uint256[]",
          "name": "amounts",
          "type": "uint256[]"
        }
      ],
      "stateMutability": "payable",
      "type": "function"
    },
    {
      "inputs": [
        {
          "internalType": "uint256",
          "name": "amountOutMin",
          "type": "uint256"
        },
        {
          "internalType": "address[]",
          "name": "path",
          "type": "address[]"
        },
        {
          "internalType": "address",
          "name": "to",
          "type": "address"
        },
        {
          "internalType": "uint256",
          "name": "deadline",
          "type": "uint256"
        }
      ],
      "name": "swapExactETHForTokensSupportingFeeOnTransferTokens",
      "outputs": [],
      "stateMutability": "payable",
      "type": "function"
    },
    {
      "inputs": [
        {
          "internalType": "uint256",
          "name": "amountIn",
          "type": "uint256"
        },
        {
          "internalType": "uint256",
          "name": "amountOutMin",
          "type": "uint256"
        },
        {
          "internalType": "address[]",
          "name": "path",
          "type": "address[]"
        },
        {
          "internalType": "address",
          "name": "to",
          "type": "address"
        },
        {
          "internalType": "uint256",
          "name": "deadline",
          "type": "uint256"
        }
      ],
      "name": "swapExactTokensForETH",
      "outputs": [
        {
          "internalType": "uint256[]",
          "name": "amounts",
          "type": "uint256[]"
        }
      ],
      "stateMutability": "nonpayable",
      "type": "function"
    },
    {
      "inputs": [
        {
          "internalType": "uint256",
          "name": "amountIn",
          "type": "uint256"
        },
        {
          "internalType": "uint256",
          "name": "amountOutMin",
          "type": "uint256"
        },
        {
          "internalType": "address[]",
          "name": "path",
          "type": "address[]"
        },
        {
          "internalType": "address",
          "name": "to",
          "type": "address"
        },
        {
          "internalType": "uint256",
          "name": "deadline",
          "type": "uint256"
        }
      ],
      "name": "swapExactTokensForETHSupportingFeeOnTransferTokens",
      "outputs": [],
      "stateMutability": "nonpayable",
      "type": "function"
    },
    {
      "inputs": [
        {
          "internalType": "uint256",
          "name": "amountIn",
          "type": "uint256"
        },
        {
          "internalType": "uint256",
          "name": "amountOutMin",
          "type": "uint256"
        },
        {
          "internalType": "address[]",
          "name": "path",
          "type": "address[]"
        },
        {
          "internalType": "address",
          "name": "to",
          "type": "address"
        },
        {
          "internalType": "uint256",
          "name": "deadline",
          "type": "uint256"
        }
      ],
      "name": "swapExactTokensForTokens",
      "outputs": [
        {
          "internalType": "uint256[]",
          "name": "amounts",
          "type": "uint256[]"
        }
      ],
      "stateMutability": "nonpayable",
      "type": "function"
    },
    {
      "inputs": [
        {
          "internalType": "uint256",
          "name": "amountIn",
          "type": "uint256"
        },
        {
          "internalType": "uint256",
          "name": "amountOutMin",
          "type": "uint256"
        },
        {
          "internalType": "address[]",
          "name": "path",
          "type": "address[]"
        },
        {
          "internalType": "address",
          "name": "to",
          "type": "address"
        },
        {
          "internalType": "uint256",
          "name": "deadline",
          "type": "uint256"
        }
      ],
      "name": "swapExactTokensForTokensSupportingFeeOnTransferTokens",
      "outputs": [],
      "stateMutability": "nonpayable",
      "type": "function"
    },
    {
      "inputs": [
        {
          "internalType": "uint256",
          "name": "amountOut",
          "type": "uint256"
        },
        {
          "internalType": "uint256",
          "name": "amountInMax",
          "type": "uint256"
        },
        {
          "internalType": "address[]",
          "name": "path",
          "type": "address[]"
        },
        {
          "internalType": "address",
          "name": "to",
          "type": "address"
        },
        {
          "internalType": "uint256",
          "name": "deadline",
          "type": "uint256"
        }
      ],
      "name": "swapTokensForExactETH",
      "outputs": [
        {
          "internalType": "uint256[]",
          "name": "amounts",
          "type": "uint256[]"
        }
      ],
      "stateMutability": "nonpayable",
      "type": "function"
    },
    {
      "inputs": [
        {
          "internalType": "uint256",
          "name": "amountOut",
          "type": "uint256"
        },
        {
          "internalType": "uint256",
          "name": "amountInMax",
          "type": "uint256"
        },
        {
          "internalType": "address[]",
          "name": "path",
          "type": "address[]"
        },
        {
          "internalType": "address",
          "name": "to",
          "type": "address"
        },
        {
          "internalType": "uint256",
          "name": "deadline",
          "type": "uint256"
        }
      ],
      "name": "swapTokensForExactTokens",
      "outputs": [
        {
          "internalType": "uint256[]",
          "name": "amounts",
          "type": "uint256[]"
        }
      ],
      "stateMutability": "nonpayable",
      "type": "function"
    },
    {
      "stateMutability": "payable",
      "type": "receive"
    }
  ],
  "bytecode": "0x60c060405234801561001057600080fd5b50604051620049f6380380620049f68339818101604052604081101561003557600080fd5b5080516020909101516001600160601b0319606092831b8116608052911b1660a05260805160601c60a05160601c61486c6200018a600039806101b55280610dc15280610dfc5280610ef3528061112352806114ad528061162552806119ec5280611af85280611bae5280611c7c5280611dd45280611e5c52806120ae528061212952806121d852806122d2528061237952806123ed52806129045280612b775280612bcd5280612c015280612c755280612e155280612f6a5280612ff2525080610f93528061106a52806111e95280611222528061135d528061154d528061160352806117735280611d215280611e8e5280611ffe5280612266528061241f5280612678528061288952806128b252806128e25280612a4f5280612bab5280612eba5280613024528061391052806139535280613c365280613dbc528061422652806142ed528061436d525061486c6000f3fe6080604052600436106101a55760003560e01c80638803dbee116100e1578063baa2abde1161008a578063ded9382a11610064578063ded9382a14610bb5578063e8e3370014610c28578063f305d71914610ca8578063fb3bdb4114610cee576101de565b8063baa2abde14610a8c578063c45a015514610ae9578063d06ca61f14610afe576101de565b8063af2979eb116100bb578063af2979eb14610978578063b4f69a2f146109cb578063b6f9de9514610a06576101de565b80638803dbee14610879578063ad5c464814610911578063ad615dec14610942576101de565b80634a25d94a1161014e578063791ac94711610128578063791ac947146106ef5780637ff36ab51461078757806381e943881461080d57806385f8c25914610843576101de565b80634a25d94a1461054c5780635b0d5984146105e45780635c11d79514610657576101de565b80631f00ca741161017f5780631f00ca741461037f5780632195995c1461043657806338ed1739146104b4576101de565b806302751cec146101e3578063054d50d41461024f57806318cbafe514610297576101de565b366101de57336001600160a01b037f000000000000000000000000000000000000000000000000000000000000000016146101dc57fe5b005b600080fd5b3480156101ef57600080fd5b50610236600480360360c081101561020657600080fd5b506001600160a01b0381358116916020810135916040820135916060810135916080820135169060a00135610d74565b6040805192835260208301919091528051918290030190f35b34801561025b57600080fd5b506102856004803603606081101561027257600080fd5b5080359060208101359060400135610e8e565b60408051918252519081900360200190f35b3480156102a357600080fd5b5061032f600480360360a08110156102ba57600080fd5b8135916020810135918101906060810160408201356401000000008111156102e157600080fd5b8201836020820111156102f357600080fd5b8035906020019184602083028401116401000000008311171561031557600080fd5b91935091506001600160a01b038135169060200135610ea3565b60408051602080825283518183015283519192839290830191858101910280838360005b8381101561036b578181015183820152602001610353565b505050509050019250505060405180910390f35b34801561038b57600080fd5b5061032f600480360360408110156103a257600080fd5b813591908101906040810160208201356401000000008111156103c457600080fd5b8201836020820111156103d657600080fd5b803590602001918460208302840111640100000000831117156103f857600080fd5b9190808060200260200160405190810160405280939291908181526020018383602002808284376000920191909152509295506111e2945050505050565b34801561044257600080fd5b50610236600480360361016081101561045a57600080fd5b506001600160a01b038135811691602081013582169160408201359160608101359160808201359160a08101359091169060c08101359060e081013515159060ff6101008201351690610120810135906101400135611218565b3480156104c057600080fd5b5061032f600480360360a08110156104d757600080fd5b8135916020810135918101906060810160408201356401000000008111156104fe57600080fd5b82018360208201111561051057600080fd5b8035906020019184602083028401116401000000008311171561053257600080fd5b91935091506001600160a01b038135169060200135611312565b34801561055857600080fd5b5061032f600480360360a081101561056f57600080fd5b81359160208101359181019060608101604082013564010000000081111561059657600080fd5b8201836020820111156105a857600080fd5b803590602001918460208302840111640100000000831117156105ca57600080fd5b91935091506001600160a01b03813516906020013561145d565b3480156105f057600080fd5b50610285600480360361014081101561060857600080fd5b506001600160a01b0381358116916020810135916040820135916060810135916080820135169060a08101359060c081013515159060ff60e082013516906101008101359061012001356115fb565b34801561066357600080fd5b506101dc600480360360a081101561067a57600080fd5b8135916020810135918101906060810160408201356401000000008111156106a157600080fd5b8201836020820111156106b357600080fd5b803590602001918460208302840111640100000000831117156106d557600080fd5b91935091506001600160a01b038135169060200135611709565b3480156106fb57600080fd5b506101dc600480360360a081101561071257600080fd5b81359160208101359181019060608101604082013564010000000081111561073957600080fd5b82018360208201111561074b57600080fd5b8035906020019184602083028401116401000000008311171561076d57600080fd5b91935091506001600160a01b03813516906020013561199e565b61032f6004803603608081101561079d57600080fd5b813591908101906040810160208201356401000000008111156107bf57600080fd5b8201836020820111156107d157600080fd5b803590602001918460208302840111640100000000831117156107f357600080fd5b91935091506001600160a01b038135169060200135611c34565b34801561081957600080fd5b506102856004803603606081101561083057600080fd5b5080359060208101359060400135611f99565b34801561084f57600080fd5b506102856004803603606081101561086657600080fd5b5080359060208101359060400135611fa6565b34801561088557600080fd5b5061032f600480360360a081101561089c57600080fd5b8135916020810135918101906060810160408201356401000000008111156108c357600080fd5b8201836020820111156108d557600080fd5b803590602001918460208302840111640100000000831117156108f757600080fd5b91935091506001600160a01b038135169060200135611fb3565b34801561091d57600080fd5b506109266120ac565b604080516001600160a01b039092168252519081900360200190f35b34801561094e57600080fd5b506102856004803603606081101561096557600080fd5b50803590602081013590604001356120d0565b34801561098457600080fd5b50610285600480360360c081101561099b57600080fd5b506001600160a01b0381358116916020810135916040820135916060810135916080820135169060a001356120dd565b3480156109d757600080fd5b50610926600480360360408110156109ee57600080fd5b506001600160a01b038135811691602001351661225e565b6101dc60048036036080811015610a1c57600080fd5b81359190810190604081016020820135640100000000811115610a3e57600080fd5b820183602082011115610a5057600080fd5b80359060200191846020830284011164010000000083111715610a7257600080fd5b91935091506001600160a01b03813516906020013561228c565b348015610a9857600080fd5b50610236600480360360e0811015610aaf57600080fd5b506001600160a01b038135811691602081013582169160408201359160608101359160808201359160a08101359091169060c0013561262a565b348015610af557600080fd5b50610926612887565b348015610b0a57600080fd5b5061032f60048036036040811015610b2157600080fd5b81359190810190604081016020820135640100000000811115610b4357600080fd5b820183602082011115610b5557600080fd5b80359060200191846020830284011164010000000083111715610b7757600080fd5b9190808060200260200160405190810160405280939291908181526020018383602002808284376000920191909152509295506128ab945050505050565b348015610bc157600080fd5b506102366004803603610140811015610bd957600080fd5b506001600160a01b0381358116916020810135916040820135916060810135916080820135169060a08101359060c081013515159060ff60e082013516906101008101359061012001356128d8565b348015610c3457600080fd5b50610c8a6004803603610100811015610c4c57600080fd5b506001600160a01b038135811691602081013582169160408201359160608101359160808201359160a08101359160c0820135169060e001356129ec565b60408051938452602084019290925282820152519081900360600190f35b610c8a600480360360c0811015610cbe57600080fd5b506001600160a01b0381358116916020810135916040820135916060810135916080820135169060a00135612b28565b61032f60048036036080811015610d0457600080fd5b81359190810190604081016020820135640100000000811115610d2657600080fd5b820183602082011115610d3857600080fd5b80359060200191846020830284011164010000000083111715610d5a57600080fd5b91935091506001600160a01b038135169060200135612dcd565b6000808242811015610dbb576040805162461bcd60e51b81526020600482015260196024820152600080516020614817833981519152604482015290519081900360640190fd5b610dea897f00000000000000000000000000000000000000000000000000000000000000008a8a8a308a61262a565b9093509150610dfa898685613161565b7f00000000000000000000000000000000000000000000000000000000000000006001600160a01b0316632e1a7d4d836040518263ffffffff1660e01b815260040180828152602001915050600060405180830381600087803b158015610e6057600080fd5b505af1158015610e74573d6000803e3d6000fd5b50505050610e8285836132e3565b50965096945050505050565b6000610e9b8484846133db565b949350505050565b60608142811015610ee9576040805162461bcd60e51b81526020600482015260196024820152600080516020614817833981519152604482015290519081900360640190fd5b6001600160a01b037f00000000000000000000000000000000000000000000000000000000000000001686866000198101818110610f2357fe5b905060200201356001600160a01b03166001600160a01b031614610f8e576040805162461bcd60e51b815260206004820152601e60248201527f4e6f6d69737761705632526f757465723a20494e56414c49445f504154480000604482015290519081900360640190fd5b610fec7f0000000000000000000000000000000000000000000000000000000000000000898888808060200260200160405190810160405280939291908181526020018383602002808284376000920191909152506134cb92505050565b91508682600184510381518110610fff57fe5b602002602001015110156110445760405162461bcd60e51b815260040180806020018281038252602c8152602001806146c9602c913960400191505060405180910390fd5b6110e28686600081811061105457fe5b905060200201356001600160a01b0316336110c87f00000000000000000000000000000000000000000000000000000000000000008a8a600081811061109657fe5b905060200201356001600160a01b03168b8b60018181106110b357fe5b905060200201356001600160a01b0316613617565b856000815181106110d557fe5b60200260200101516136ef565b61112182878780806020026020016040519081016040528093929190818152602001838360200280828437600092019190915250309250613861915050565b7f00000000000000000000000000000000000000000000000000000000000000006001600160a01b0316632e1a7d4d8360018551038151811061116057fe5b60200260200101516040518263ffffffff1660e01b815260040180828152602001915050600060405180830381600087803b15801561119e57600080fd5b505af11580156111b2573d6000803e3d6000fd5b505050506111d784836001855103815181106111ca57fe5b60200260200101516132e3565b509695505050505050565b606061120f7f00000000000000000000000000000000000000000000000000000000000000008484613aa7565b90505b92915050565b60008060006112487f00000000000000000000000000000000000000000000000000000000000000008f8f613617565b9050600087611257578c61125b565b6000195b6040805163d505accf60e01b815233600482015230602482015260448101839052606481018c905260ff8a16608482015260a4810189905260c4810188905290519192506001600160a01b0384169163d505accf9160e48082019260009290919082900301818387803b1580156112d157600080fd5b505af11580156112e5573d6000803e3d6000fd5b505050506112f88f8f8f8f8f8f8f61262a565b809450819550505050509b509b9950505050505050505050565b60608142811015611358576040805162461bcd60e51b81526020600482015260196024820152600080516020614817833981519152604482015290519081900360640190fd5b6113b67f0000000000000000000000000000000000000000000000000000000000000000898888808060200260200160405190810160405280939291908181526020018383602002808284376000920191909152506134cb92505050565b915086826001845103815181106113c957fe5b6020026020010151101561140e5760405162461bcd60e51b815260040180806020018281038252602c8152602001806146c9602c913960400191505060405180910390fd5b61141e8686600081811061105457fe5b6111d782878780806020026020016040519081016040528093929190818152602001838360200280828437600092019190915250899250613861915050565b606081428110156114a3576040805162461bcd60e51b81526020600482015260196024820152600080516020614817833981519152604482015290519081900360640190fd5b6001600160a01b037f000000000000000000000000000000000000000000000000000000000000000016868660001981018181106114dd57fe5b905060200201356001600160a01b03166001600160a01b031614611548576040805162461bcd60e51b815260206004820152601e60248201527f4e6f6d69737761705632526f757465723a20494e56414c49445f504154480000604482015290519081900360640190fd5b6115a67f000000000000000000000000000000000000000000000000000000000000000089888880806020026020016040519081016040528093929190818152602001838360200280828437600092019190915250613aa792505050565b915086826000815181106115b657fe5b602002602001015111156110445760405162461bcd60e51b815260040180806020018281038252602881526020018061467a6028913960400191505060405180910390fd5b6000806116497f00000000000000000000000000000000000000000000000000000000000000008d7f0000000000000000000000000000000000000000000000000000000000000000613617565b9050600086611658578b61165c565b6000195b6040805163d505accf60e01b815233600482015230602482015260448101839052606481018b905260ff8916608482015260a4810188905260c4810187905290519192506001600160a01b0384169163d505accf9160e48082019260009290919082900301818387803b1580156116d257600080fd5b505af11580156116e6573d6000803e3d6000fd5b505050506116f88d8d8d8d8d8d6120dd565b9d9c50505050505050505050505050565b804281101561174d576040805162461bcd60e51b81526020600482015260196024820152600080516020614817833981519152604482015290519081900360640190fd5b6117c28585600081811061175d57fe5b905060200201356001600160a01b0316336117bc7f00000000000000000000000000000000000000000000000000000000000000008989600081811061179f57fe5b905060200201356001600160a01b03168a8a60018181106110b357fe5b8a6136ef565b6000858560001981018181106117d457fe5b905060200201356001600160a01b03166001600160a01b03166370a08231856040518263ffffffff1660e01b815260040180826001600160a01b03166001600160a01b0316815260200191505060206040518083038186803b15801561183957600080fd5b505afa15801561184d573d6000803e3d6000fd5b505050506040513d602081101561186357600080fd5b505160408051602088810282810182019093528882529293506118a5929091899189918291850190849080828437600092019190915250889250613bdf915050565b8661195782888860001981018181106118ba57fe5b905060200201356001600160a01b03166001600160a01b03166370a08231886040518263ffffffff1660e01b815260040180826001600160a01b03166001600160a01b0316815260200191505060206040518083038186803b15801561191f57600080fd5b505afa158015611933573d6000803e3d6000fd5b505050506040513d602081101561194957600080fd5b50519063ffffffff613f0a16565b10156119945760405162461bcd60e51b815260040180806020018281038252602c8152602001806146c9602c913960400191505060405180910390fd5b5050505050505050565b80428110156119e2576040805162461bcd60e51b81526020600482015260196024820152600080516020614817833981519152604482015290519081900360640190fd5b6001600160a01b037f00000000000000000000000000000000000000000000000000000000000000001685856000198101818110611a1c57fe5b905060200201356001600160a01b03166001600160a01b031614611a87576040805162461bcd60e51b815260206004820152601e60248201527f4e6f6d69737761705632526f757465723a20494e56414c49445f504154480000604482015290519081900360640190fd5b611a978585600081811061175d57fe5b611ad5858580806020026020016040519081016040528093929190818152602001838360200280828437600092019190915250309250613bdf915050565b604080516370a0823160e01b815230600482015290516000916001600160a01b037f000000000000000000000000000000000000000000000000000000000000000016916370a0823191602480820192602092909190829003018186803b158015611b3f57600080fd5b505afa158015611b53573d6000803e3d6000fd5b505050506040513d6020811015611b6957600080fd5b5051905086811015611bac5760405162461bcd60e51b815260040180806020018281038252602c8152602001806146c9602c913960400191505060405180910390fd5b7f00000000000000000000000000000000000000000000000000000000000000006001600160a01b0316632e1a7d4d826040518263ffffffff1660e01b815260040180828152602001915050600060405180830381600087803b158015611c1257600080fd5b505af1158015611c26573d6000803e3d6000fd5b5050505061199484826132e3565b60608142811015611c7a576040805162461bcd60e51b81526020600482015260196024820152600080516020614817833981519152604482015290519081900360640190fd5b7f00000000000000000000000000000000000000000000000000000000000000006001600160a01b031686866000818110611cb157fe5b905060200201356001600160a01b03166001600160a01b031614611d1c576040805162461bcd60e51b815260206004820152601e60248201527f4e6f6d69737761705632526f757465723a20494e56414c49445f504154480000604482015290519081900360640190fd5b611d7a7f0000000000000000000000000000000000000000000000000000000000000000348888808060200260200160405190810160405280939291908181526020018383602002808284376000920191909152506134cb92505050565b91508682600184510381518110611d8d57fe5b60200260200101511015611dd25760405162461bcd60e51b815260040180806020018281038252602c8152602001806146c9602c913960400191505060405180910390fd5b7f00000000000000000000000000000000000000000000000000000000000000006001600160a01b031663d0e30db083600081518110611e0e57fe5b60200260200101516040518263ffffffff1660e01b81526004016000604051808303818588803b158015611e4157600080fd5b505af1158015611e55573d6000803e3d6000fd5b50505050507f00000000000000000000000000000000000000000000000000000000000000006001600160a01b031663a9059cbb611eba7f00000000000000000000000000000000000000000000000000000000000000008989600081811061179f57fe5b84600081518110611ec757fe5b60200260200101516040518363ffffffff1660e01b815260040180836001600160a01b03166001600160a01b0316815260200182815260200192505050602060405180830381600087803b158015611f1e57600080fd5b505af1158015611f32573d6000803e3d6000fd5b505050506040513d6020811015611f4857600080fd5b5051611f5057fe5b611f8f82878780806020026020016040519081016040528093929190818152602001838360200280828437600092019190915250899250613861915050565b5095945050505050565b6000610e9b848484610e8e565b6000610e9b848484613f62565b60608142811015611ff9576040805162461bcd60e51b81526020600482015260196024820152600080516020614817833981519152604482015290519081900360640190fd5b6120577f000000000000000000000000000000000000000000000000000000000000000089888880806020026020016040519081016040528093929190818152602001838360200280828437600092019190915250613aa792505050565b9150868260008151811061206757fe5b6020026020010151111561140e5760405162461bcd60e51b815260040180806020018281038252602881526020018061467a6028913960400191505060405180910390fd5b7f000000000000000000000000000000000000000000000000000000000000000081565b6000610e9b848484614052565b60008142811015612123576040805162461bcd60e51b81526020600482015260196024820152600080516020614817833981519152604482015290519081900360640190fd5b612152887f0000000000000000000000000000000000000000000000000000000000000000898989308961262a565b604080516370a0823160e01b815230600482015290519194506121d692508a9187916001600160a01b038416916370a0823191602480820192602092909190829003018186803b1580156121a557600080fd5b505afa1580156121b9573d6000803e3d6000fd5b505050506040513d60208110156121cf57600080fd5b5051613161565b7f00000000000000000000000000000000000000000000000000000000000000006001600160a01b0316632e1a7d4d836040518263ffffffff1660e01b815260040180828152602001915050600060405180830381600087803b15801561223c57600080fd5b505af1158015612250573d6000803e3d6000fd5b505050506111d784836132e3565b600080610e9b7f00000000000000000000000000000000000000000000000000000000000000008585613617565b80428110156122d0576040805162461bcd60e51b81526020600482015260196024820152600080516020614817833981519152604482015290519081900360640190fd5b7f00000000000000000000000000000000000000000000000000000000000000006001600160a01b03168585600081811061230757fe5b905060200201356001600160a01b03166001600160a01b031614612372576040805162461bcd60e51b815260206004820152601e60248201527f4e6f6d69737761705632526f757465723a20494e56414c49445f504154480000604482015290519081900360640190fd5b60003490507f00000000000000000000000000000000000000000000000000000000000000006001600160a01b031663d0e30db0826040518263ffffffff1660e01b81526004016000604051808303818588803b1580156123d257600080fd5b505af11580156123e6573d6000803e3d6000fd5b50505050507f00000000000000000000000000000000000000000000000000000000000000006001600160a01b031663a9059cbb61244b7f00000000000000000000000000000000000000000000000000000000000000008989600081811061179f57fe5b836040518363ffffffff1660e01b815260040180836001600160a01b03166001600160a01b0316815260200182815260200192505050602060405180830381600087803b15801561249b57600080fd5b505af11580156124af573d6000803e3d6000fd5b505050506040513d60208110156124c557600080fd5b50516124cd57fe5b6000868660001981018181106124df57fe5b905060200201356001600160a01b03166001600160a01b03166370a08231866040518263ffffffff1660e01b815260040180826001600160a01b03166001600160a01b0316815260200191505060206040518083038186803b15801561254457600080fd5b505afa158015612558573d6000803e3d6000fd5b505050506040513d602081101561256e57600080fd5b505160408051602089810282810182019093528982529293506125b09290918a918a918291850190849080828437600092019190915250899250613bdf915050565b8761195782898960001981018181106125c557fe5b905060200201356001600160a01b03166001600160a01b03166370a08231896040518263ffffffff1660e01b815260040180826001600160a01b03166001600160a01b0316815260200191505060206040518083038186803b15801561191f57600080fd5b6000808242811015612671576040805162461bcd60e51b81526020600482015260196024820152600080516020614817833981519152604482015290519081900360640190fd5b600061269e7f00000000000000000000000000000000000000000000000000000000000000008c8c613617565b604080516323b872dd60e01b81523360048201526001600160a01b03831660248201819052604482018d9052915192935090916323b872dd916064808201926020929091908290030181600087803b1580156126f957600080fd5b505af115801561270d573d6000803e3d6000fd5b505050506040513d602081101561272357600080fd5b5050604080517f89afcb440000000000000000000000000000000000000000000000000000000081526001600160a01b03888116600483015282516000938493928616926389afcb44926024808301939282900301818787803b15801561278957600080fd5b505af115801561279d573d6000803e3d6000fd5b505050506040513d60408110156127b357600080fd5b508051602090910151909250905060006127cd8e8e6140fe565b509050806001600160a01b03168e6001600160a01b0316146127f05781836127f3565b82825b90975095508a8710156128375760405162461bcd60e51b81526004018080602001828103825260278152602001806146a26027913960400191505060405180910390fd5b898610156128765760405162461bcd60e51b81526004018080602001828103825260278152602001806147486027913960400191505060405180910390fd5b505050505097509795505050505050565b7f000000000000000000000000000000000000000000000000000000000000000081565b606061120f7f000000000000000000000000000000000000000000000000000000000000000084846134cb565b60008060006129287f00000000000000000000000000000000000000000000000000000000000000008e7f0000000000000000000000000000000000000000000000000000000000000000613617565b9050600087612937578c61293b565b6000195b6040805163d505accf60e01b815233600482015230602482015260448101839052606481018c905260ff8a16608482015260a4810189905260c4810188905290519192506001600160a01b0384169163d505accf9160e48082019260009290919082900301818387803b1580156129b157600080fd5b505af11580156129c5573d6000803e3d6000fd5b505050506129d78e8e8e8e8e8e610d74565b909f909e509c50505050505050505050505050565b60008060008342811015612a35576040805162461bcd60e51b81526020600482015260196024820152600080516020614817833981519152604482015290519081900360640190fd5b612a438c8c8c8c8c8c6141dc565b90945092506000612a757f00000000000000000000000000000000000000000000000000000000000000008e8e613617565b9050612a838d3383886136ef565b612a8f8c3383876136ef565b806001600160a01b0316636a627842886040518263ffffffff1660e01b815260040180826001600160a01b03166001600160a01b03168152602001915050602060405180830381600087803b158015612ae757600080fd5b505af1158015612afb573d6000803e3d6000fd5b505050506040513d6020811015612b1157600080fd5b5051949d939c50939a509198505050505050505050565b60008060008342811015612b71576040805162461bcd60e51b81526020600482015260196024820152600080516020614817833981519152604482015290519081900360640190fd5b612b9f8a7f00000000000000000000000000000000000000000000000000000000000000008b348c8c6141dc565b90945092506000612bf17f00000000000000000000000000000000000000000000000000000000000000008c7f0000000000000000000000000000000000000000000000000000000000000000613617565b9050612bff8b3383886136ef565b7f00000000000000000000000000000000000000000000000000000000000000006001600160a01b031663d0e30db0856040518263ffffffff1660e01b81526004016000604051808303818588803b158015612c5a57600080fd5b505af1158015612c6e573d6000803e3d6000fd5b50505050507f00000000000000000000000000000000000000000000000000000000000000006001600160a01b031663a9059cbb82866040518363ffffffff1660e01b815260040180836001600160a01b03166001600160a01b0316815260200182815260200192505050602060405180830381600087803b158015612cf357600080fd5b505af1158015612d07573d6000803e3d6000fd5b505050506040513d6020811015612d1d57600080fd5b5051612d2557fe5b806001600160a01b0316636a627842886040518263ffffffff1660e01b815260040180826001600160a01b03166001600160a01b03168152602001915050602060405180830381600087803b158015612d7d57600080fd5b505af1158015612d91573d6000803e3d6000fd5b505050506040513d6020811015612da757600080fd5b5051925034841015612dbf57612dbf338534036132e3565b505096509650969350505050565b60608142811015612e13576040805162461bcd60e51b81526020600482015260196024820152600080516020614817833981519152604482015290519081900360640190fd5b7f00000000000000000000000000000000000000000000000000000000000000006001600160a01b031686866000818110612e4a57fe5b905060200201356001600160a01b03166001600160a01b031614612eb5576040805162461bcd60e51b815260206004820152601e60248201527f4e6f6d69737761705632526f757465723a20494e56414c49445f504154480000604482015290519081900360640190fd5b612f137f000000000000000000000000000000000000000000000000000000000000000088888880806020026020016040519081016040528093929190818152602001838360200280828437600092019190915250613aa792505050565b91503482600081518110612f2357fe5b60200260200101511115612f685760405162461bcd60e51b815260040180806020018281038252602881526020018061467a6028913960400191505060405180910390fd5b7f00000000000000000000000000000000000000000000000000000000000000006001600160a01b031663d0e30db083600081518110612fa457fe5b60200260200101516040518263ffffffff1660e01b81526004016000604051808303818588803b158015612fd757600080fd5b505af1158015612feb573d6000803e3d6000fd5b50505050507f00000000000000000000000000000000000000000000000000000000000000006001600160a01b031663a9059cbb6130507f00000000000000000000000000000000000000000000000000000000000000008989600081811061179f57fe5b8460008151811061305d57fe5b60200260200101516040518363ffffffff1660e01b815260040180836001600160a01b03166001600160a01b0316815260200182815260200192505050602060405180830381600087803b1580156130b457600080fd5b505af11580156130c8573d6000803e3d6000fd5b505050506040513d60208110156130de57600080fd5b50516130e657fe5b61312582878780806020026020016040519081016040528093929190818152602001838360200280828437600092019190915250899250613861915050565b8160008151811061313257fe5b6020026020010151341115611f8f57611f8f338360008151811061315257fe5b602002602001015134036132e3565b604080516001600160a01b038481166024830152604480830185905283518084039091018152606490920183526020820180517bffffffffffffffffffffffffffffffffffffffffffffffffffffffff167fa9059cbb00000000000000000000000000000000000000000000000000000000178152925182516000946060949389169392918291908083835b6020831061320c5780518252601f1990920191602091820191016131ed565b6001836020036101000a0380198251168184511680821785525050505050509050019150506000604051808303816000865af19150503d806000811461326e576040519150601f19603f3d011682016040523d82523d6000602084013e613273565b606091505b50915091508180156132a15750805115806132a1575080806020019051602081101561329e57600080fd5b50515b6132dc5760405162461bcd60e51b815260040180806020018281038252602d8152602001806147c4602d913960400191505060405180910390fd5b5050505050565b604080516000808252602082019092526001600160a01b0384169083906040518082805190602001908083835b6020831061332f5780518252601f199092019160209182019101613310565b6001836020036101000a03801982511681845116808217855250505050505090500191505060006040518083038185875af1925050503d8060008114613391576040519150601f19603f3d011682016040523d82523d6000602084013e613396565b606091505b50509050806133d65760405162461bcd60e51b81526004018080602001828103825260348152602001806146466034913960400191505060405180910390fd5b505050565b600080841161341b5760405162461bcd60e51b815260040180806020018281038252602c815260200180614798602c913960400191505060405180910390fd5b60008311801561342b5750600082115b6134665760405162461bcd60e51b815260040180806020018281038252602981526020018061476f6029913960400191505060405180910390fd5b600061347a856103e563ffffffff61448216565b9050600061348e828563ffffffff61448216565b905060006134b4836134a8886103e863ffffffff61448216565b9063ffffffff6144ee16565b90508082816134bf57fe5b04979650505050505050565b6060600282511015613524576040805162461bcd60e51b815260206004820152601f60248201527f4e6f6d697377617056324c6962726172793a20494e56414c49445f5041544800604482015290519081900360640190fd5b815167ffffffffffffffff8111801561353c57600080fd5b50604051908082528060200260200182016040528015613566578160200160208202803683370190505b509050828160008151811061357757fe5b60200260200101818152505060005b600183510381101561360f576000806135c9878685815181106135a557fe5b60200260200101518786600101815181106135bc57fe5b6020026020010151614546565b915091506135eb8484815181106135dc57fe5b602002602001015183836133db565b8484600101815181106135fa57fe5b60209081029190910101525050600101613586565b509392505050565b600080600061362685856140fe565b604080516bffffffffffffffffffffffff19606094851b811660208084019190915293851b81166034830152825160288184030181526048830184528051908501207fff0000000000000000000000000000000000000000000000000000000000000060688401529a90941b9093166069840152607d8301989098527f04d940293fc0d27cc90b5d4318c1e679a6446d9019ae8b33f565843f2a7f13e8609d808401919091528851808403909101815260bd909201909752805196019590952095945050505050565b604080516001600160a01b0385811660248301528481166044830152606480830185905283518084039091018152608490920183526020820180517bffffffffffffffffffffffffffffffffffffffffffffffffffffffff166323b872dd60e01b17815292518251600094606094938a169392918291908083835b602083106137895780518252601f19909201916020918201910161376a565b6001836020036101000a0380198251168184511680821785525050505050509050019150506000604051808303816000865af19150503d80600081146137eb576040519150601f19603f3d011682016040523d82523d6000602084013e6137f0565b606091505b509150915081801561381e57508051158061381e575080806020019051602081101561381b57600080fd5b50515b6138595760405162461bcd60e51b81526004018080602001828103825260318152602001806146156031913960400191505060405180910390fd5b505050505050565b60005b6001835103811015613aa15760008084838151811061387f57fe5b602002602001015185846001018151811061389657fe5b60200260200101519150915060006138ae83836140fe565b50905060008785600101815181106138c257fe5b60200260200101519050600080836001600160a01b0316866001600160a01b0316146138f0578260006138f4565b6000835b91509150600060028a5103881061390b578861394c565b61394c7f0000000000000000000000000000000000000000000000000000000000000000878c8b6002018151811061393f57fe5b6020026020010151613617565b90506139797f00000000000000000000000000000000000000000000000000000000000000008888613617565b6001600160a01b031663022c0d9f84848460006040519080825280601f01601f1916602001820160405280156139b6576020820181803683370190505b506040518563ffffffff1660e01b815260040180858152602001848152602001836001600160a01b03166001600160a01b0316815260200180602001828103825283818151815260200191508051906020019080838360005b83811015613a27578181015183820152602001613a0f565b50505050905090810190601f168015613a545780820380516001836020036101000a031916815260200191505b5095505050505050600060405180830381600087803b158015613a7657600080fd5b505af1158015613a8a573d6000803e3d6000fd5b505060019099019850613864975050505050505050565b50505050565b6060600282511015613b00576040805162461bcd60e51b815260206004820152601f60248201527f4e6f6d697377617056324c6962726172793a20494e56414c49445f5041544800604482015290519081900360640190fd5b815167ffffffffffffffff81118015613b1857600080fd5b50604051908082528060200260200182016040528015613b42578160200160208202803683370190505b5090508281600183510381518110613b5657fe5b60209081029190910101528151600019015b801561360f57600080613b9887866001860381518110613b8457fe5b60200260200101518786815181106135bc57fe5b91509150613bba848481518110613bab57fe5b60200260200101518383613f62565b846001850381518110613bc957fe5b6020908102919091010152505060001901613b68565b60005b60018351038110156133d657600080848381518110613bfd57fe5b6020026020010151858460010181518110613c1457fe5b6020026020010151915091506000613c2c83836140fe565b5090506000613c5c7f00000000000000000000000000000000000000000000000000000000000000008585613617565b9050600080600080846001600160a01b0316630902f1ac6040518163ffffffff1660e01b815260040160606040518083038186803b158015613c9d57600080fd5b505afa158015613cb1573d6000803e3d6000fd5b505050506040513d6060811015613cc757600080fd5b5080516020909101516dffffffffffffffffffffffffffff91821693501690506000806001600160a01b038a811690891614613d04578284613d07565b83835b91509150613d65828b6001600160a01b03166370a082318a6040518263ffffffff1660e01b815260040180826001600160a01b03166001600160a01b0316815260200191505060206040518083038186803b15801561191f57600080fd5b9550613d728683836133db565b945050505050600080856001600160a01b0316886001600160a01b031614613d9c57826000613da0565b6000835b91509150600060028c51038a10613db7578a613deb565b613deb7f0000000000000000000000000000000000000000000000000000000000000000898e8d6002018151811061393f57fe5b60408051600080825260208201928390527f022c0d9f00000000000000000000000000000000000000000000000000000000835260248201878152604483018790526001600160a01b038086166064850152608060848501908152845160a48601819052969750908c169563022c0d9f958a958a958a9591949193919260c486019290918190849084905b83811015613e8e578181015183820152602001613e76565b50505050905090810190601f168015613ebb5780820380516001836020036101000a031916815260200191505b5095505050505050600060405180830381600087803b158015613edd57600080fd5b505af1158015613ef1573d6000803e3d6000fd5b50506001909b019a50613be29950505050505050505050565b80820382811115611212576040805162461bcd60e51b815260206004820152601560248201527f64732d6d6174682d7375622d756e646572666c6f770000000000000000000000604482015290519081900360640190fd5b6000808411613fa25760405162461bcd60e51b815260040180806020018281038252602d8152602001806146f5602d913960400191505060405180910390fd5b600083118015613fb25750600082115b613fed5760405162461bcd60e51b815260040180806020018281038252602981526020018061476f6029913960400191505060405180910390fd5b60006140116103e8614005868863ffffffff61448216565b9063ffffffff61448216565b9050600061402b6103e5614005868963ffffffff613f0a16565b9050614048600182848161403b57fe5b049063ffffffff6144ee16565b9695505050505050565b60008084116140925760405162461bcd60e51b81526004018080602001828103825260268152602001806147f16026913960400191505060405180910390fd5b6000831180156140a25750600082115b6140dd5760405162461bcd60e51b815260040180806020018281038252602981526020018061476f6029913960400191505060405180910390fd5b826140ee858463ffffffff61448216565b816140f557fe5b04949350505050565b600080826001600160a01b0316846001600160a01b031614156141525760405162461bcd60e51b81526004018080602001828103825260268152602001806147226026913960400191505060405180910390fd5b826001600160a01b0316846001600160a01b031610614172578284614175565b83835b90925090506001600160a01b0382166141d5576040805162461bcd60e51b815260206004820152601f60248201527f4e6f6d697377617056324c6962726172793a205a45524f5f4144445245535300604482015290519081900360640190fd5b9250929050565b604080517fe6a439050000000000000000000000000000000000000000000000000000000081526001600160a01b03888116600483015287811660248301529151600092839283927f00000000000000000000000000000000000000000000000000000000000000009092169163e6a4390591604480820192602092909190829003018186803b15801561426f57600080fd5b505afa158015614283573d6000803e3d6000fd5b505050506040513d602081101561429957600080fd5b50516001600160a01b0316141561436557604080517fc9c653960000000000000000000000000000000000000000000000000000000081526001600160a01b038a81166004830152898116602483015291517f00000000000000000000000000000000000000000000000000000000000000009092169163c9c65396916044808201926020929091908290030181600087803b15801561433857600080fd5b505af115801561434c573d6000803e3d6000fd5b505050506040513d602081101561436257600080fd5b50505b6000806143937f00000000000000000000000000000000000000000000000000000000000000008b8b614546565b915091508160001480156143a5575080155b156143b557879350869250614475565b60006143c2898484614052565b9050878111614415578581101561440a5760405162461bcd60e51b81526004018080602001828103825260278152602001806147486027913960400191505060405180910390fd5b889450925082614473565b6000614422898486614052565b90508981111561442e57fe5b8781101561446d5760405162461bcd60e51b81526004018080602001828103825260278152602001806146a26027913960400191505060405180910390fd5b94508793505b505b5050965096945050505050565b600081158061449d5750508082028282828161449a57fe5b04145b611212576040805162461bcd60e51b815260206004820152601460248201527f64732d6d6174682d6d756c2d6f766572666c6f77000000000000000000000000604482015290519081900360640190fd5b80820182811015611212576040805162461bcd60e51b815260206004820152601460248201527f64732d6d6174682d6164642d6f766572666c6f77000000000000000000000000604482015290519081900360640190fd5b600080600061455585856140fe565b509050600080614566888888613617565b6001600160a01b0316630902f1ac6040518163ffffffff1660e01b815260040160606040518083038186803b15801561459e57600080fd5b505afa1580156145b2573d6000803e3d6000fd5b505050506040513d60608110156145c857600080fd5b5080516020909101516dffffffffffffffffffffffffffff91821693501690506001600160a01b0387811690841614614602578082614605565b81815b9099909850965050505050505056fe5472616e7366657248656c7065723a3a7472616e7366657246726f6d3a207472616e7366657246726f6d206661696c65645472616e7366657248656c7065723a3a736166655472616e736665724554483a20455448207472616e73666572206661696c65644e6f6d69737761705632526f757465723a204558434553534956455f494e5055545f414d4f554e544e6f6d69737761705632526f757465723a20494e53554646494349454e545f415f414d4f554e544e6f6d69737761705632526f757465723a20494e53554646494349454e545f4f55545055545f414d4f554e544e6f6d697377617056324c6962726172793a20494e53554646494349454e545f4f55545055545f414d4f554e544e6f6d697377617056324c6962726172793a204944454e544943414c5f4144445245535345534e6f6d69737761705632526f757465723a20494e53554646494349454e545f425f414d4f554e544e6f6d697377617056324c6962726172793a20494e53554646494349454e545f4c49515549444954594e6f6d697377617056324c6962726172793a20494e53554646494349454e545f494e5055545f414d4f554e545472616e7366657248656c7065723a3a736166655472616e736665723a207472616e73666572206661696c65644e6f6d697377617056324c6962726172793a20494e53554646494349454e545f414d4f554e544e6f6d69737761705632526f757465723a204558504952454400000000000000a264697066735822122097cfa339694a1e1c99ec0a3312563f3bfae982db7333eb36af4af2f84a887b6764736f6c63430006060033",
  "linkReferences": {},
  "deployedLinkReferences": {}
}